:020000040000FA
:100000000C9481000C94A9000C94A9000C94A900F4
:100010000C94A9000C94A9000C94A9000C94F3086A
:100020000C94A9000C94A9000C94A9000C94A900AC
:100030000C94A9000C94A9000C94A9000C94A9009C
:100040000C94A7090C94A9000C9475090C944F0901
:100050000C94A9000C94A9000C94A9000C94A9007C
:100060000C94A9000C94A9004E414E494E49545994
:10007000494E46CDCCCC3D0AD7233C17B7D1387773
:10008000CC2B329595E6241FB14F0A000020410089
:1000900000C84200401C4620BCBE4CCA1B0E5AAED3
:1000A000C59D7400000000240027002A0000000005
:1000B000002300260029000200000000250028007F
:1000C0002B000404040404040404020202020202D9
:1000D000030303030303010204081020408001020C
:1000E000040810200102040810200000000800028B
:1000F0000100000304070000000000000000F109F7
:100100000D1D11241FBECFEFD8E0DEBFCDBF12E022
:10011000A0E0B1E0E8EEFDE402C005900D92A83643
:10012000B107D9F724E0A8E6B2E001C01D92A73BD1
:10013000B207E1F710E0C0E8D0E004C02197FE016B
:100140000E940D23CF37D107C9F70E94DE0A0C9415
:10015000E7260C940000EDE6F3E087E0808381E081
:10016000828395E0938384838583818193E0968362
:100170009CE397839AE0908720E530E0348F238FCB
:100180002AE530E0368F258F24E630E030A3278F34
:1001900096E091A32CE231E03287218734872387D0
:1001A000168615862FEF3FEF308B27872CE330E044
:1001B000328B218B4FE852EC65E77CE3438B548B09
:1001C000658B768B46EA5BE964EC7BE3478B508F6B
:1001D000618F728F80788183089580919504EDE31B
:1001E000F3E050E040E091914F5F5F4F981719F0B6
:1001F00040355105C1F780918D0490918E04DC014A
:10020000ED91FC910280F381E02D6DE373E00994A0
:100210008F929F92AF92BF92CF92DF92EF92FF9216
:10022000CF932091BA033091BB0382179307E8F56F
:100230004B01AA24BB24C82DC52ED62EE72EFF24A1
:10024000BC2DA42F2091C003222361F0829E400187
:100250001124C92D2C9D60011124BD2D249FF00176
:100260001124AF2FE091C603E090C103F090C203C8
:100270003091C303E31323C09C01220F331F820F6D
:10028000931F8E0D9F1DE091C303E80FF92FF11D01
:10029000C083E091C403E80FF92FF11DB0832091D2
:1002A000C503820F911DFC01A083CF91FF90EF90B9
:1002B000DF90CF90BF90AF909F908F900895880F60
:1002C000991F880F991F8E0D9F1D472F5527662751
:1002D0007727222349F030E0249F7001259FF00CFE
:1002E000349FF00C11244F2DE80FF92FF11D40839E
:1002F000CACFEDE6F3E083859485019625853685A2
:10030000820F931F23A934A940E052E268E270E013
:10031000821B930B0C9408010F931F93CF93DF93D1
:100320000091880310918903C0918A03D0918B03B7
:10033000C017D10714F12091880330918903C801B7
:10034000821B930B45E0880F991F4A95E1F7C21B6A
:100350006C2F70E00E94F922462F50E070E060E0C0
:10036000DA0199278827482B592B6A2B7B2BC80148
:100370000E9408010F5F1F4FD7CF60918C037091CF
:100380008D036C177D07F4F0CB018C1B9D0B25E0D2
:10039000880F991F2A95E1F720918A03621B70E06C
:1003A0000E94F922462F50E070E060E0DA019927C0
:1003B0008827482B592B6A2B7B2BCE010E940801E2
:1003C0002196DBCFDF91CF911F910F910895CF93AD
:1003D000DF93EDE6F3E081899289C185D285C81B60
:1003E000D90B40E050E460E470E09E01281B390B1B
:1003F000C9010E94080140E050E460E470E0CE01D1
:10040000DF91CF910C9408011F93CF93DF93182FA6
:10041000D0E0C0E08091780390917903C817D907A4
:1004200044F440E050E0BA01CE010E940801219658
:10043000F1CFD0E0C0E080917A0390917B03C817A0
:10044000D9076CF4809178039091790340E050E0F3
:10045000BA018C0F9D1F0E9408012196ECCF112339
:1004600071F08091A60381110E948C018091A703F5
:10047000882329F0DF91CF911F910C94E701DF9140
:10048000CF911F910895AF92BF92CF92DF92EF92DA
:10049000FF920F931F93CF93DF936C017B018B012E
:1004A000040F151FEB015E01AE18BF08C017D1077E
:1004B00059F06991D601ED91FC910190F081E02D08
:1004C000C6010995892B79F7C501DF91CF911F915D
:1004D0000F91FF90EF90DF90CF90BF90AF90089575
:1004E000FC01538D448D252F30E0842F90E0821B3A
:1004F000930B541710F0CF96089501970895FC01BF
:10050000918D828D981761F0A28DAE0FBF2FB11D16
:100510005D968C91928D9F5F9F73928F90E008956E
:100520008FEF9FEF0895FC01918D828D981731F028
:10053000828DE80FF11D858D90E008958FEF9FEF7C
:100540000895FC01918D228D892F90E0805C9F4F52
:10055000821B91098F73992708958EEC93E00E9476
:10056000A10221E0892B09F420E0822F089580E088
:1005700090E0892B29F00E94AD0281110C940000BB
:100580000895FC01A48DA80FB92FB11DA35ABF4F28
:100590002C91848D90E001968F739927848FA68982
:1005A000B7892C93A089B1898C91837080648C93D6
:1005B000938D848D981306C00288F389E02D808185
:1005C0008F7D80830895EF92FF920F931F93CF93B7
:1005D000DF93EC0181E0888F9B8D8C8D98131AC07E
:1005E000E889F989808185FF15C09FB7F894EE8965
:1005F000FF896083E889F9898081837080648083C2
:100600009FBF81E090E0DF91CF911F910F91FF900C
:10061000EF900895F62E0B8D10E00F5F1F4F0F73B4
:100620001127E02E8C8D8E110CC00FB607FCFACF6F
:10063000E889F989808185FFF5CFCE010E94C1024A
:10064000F1CFEB8DEC0FFD2FF11DE35AFF4FF08240
:100650009FB7F8940B8FEA89FB8980818062CFCFA6
:10066000CF93DF93EC01888D8823B9F0AA89BB89E9
:10067000E889F9898C9185FD03C0808186FD0DC0D4
:100680000FB607FCF7CF8C9185FFF2CF808185FFF5
:10069000EDCFCE010E94C102E9CFDF91CF91089545
:1006A000833081F028F4813099F08230A9F00895E8
:1006B0008730A9F08830C9F08430B1F4809180008F
:1006C0008F7D03C0809180008F7780938000089594
:1006D00084B58F7784BD089584B58F7DFBCF8091DD
:1006E000B0008F778093B00008958091B0008F7D27
:1006F000F9CFCF93DF93282F30E0F901E651FF4F78
:100700008491F901EA52FF4FD491F901EE53FF4F62
:10071000C491CC2391F081110E945003EC2FF0E0A2
:10072000EE0FFF1FE854FF4FA591B4918FB7F894D7
:10073000EC91D095DE23DC938FBFDF91CF910895AC
:1007400090910D0189130BC0E7EBF0E0E4919FEF6E
:1007500090930D01E13041F020F0E23059F00C941B
:10076000790310926E00FBCF90916F009D7F909364
:100770006F00F5CF909170009D7F9093700091E095
:100780009093B0009091B100987F94609093B100E5
:100790001092B300E4CFCF93DF93282F30E0F9011C
:1007A000E651FF4F8491F901EA52FF4FD491F901CC
:1007B000EE53FF4FC491CC23A1F081110E9450034E
:1007C000EC2FF0E0EE0FFF1FE355FF4FA591B49122
:1007D000EC91ED2381E090E009F480E0DF91CF918E
:1007E000089580E090E0FACFCF93DF9390E0FC0192
:1007F000EA52FF4F24918E539F4FFC01849188232E
:10080000C9F090E0880F991FFC01ED55FF4FA591AD
:10081000B491FC01E854FF4FC591D49161110DC012
:100820009FB7F8948C91209582238C9388812823FC
:1008300028839FBFDF91CF910895623051F49FB715
:10084000F8943C91822F809583238C93E8812E2B02
:10085000EFCF8FB7F894EC912E2B2C938FBFEACF6C
:100860004F925F926F927F928F929F92AF92BF92C0
:10087000CF92DF92EF92FF920F931F93CF93DF936C
:1008800000D000D01F92CDB7DEB78C012A013B010A
:1008900080910D018330C9F08F3F09F47FC00F9024
:1008A0000F900F900F900F90DF91CF911F910F91AC
:1008B000FF90EF90DF90CF90BF90AF909F908F9080
:1008C0007F906F905F904F900895E7EBF0E08491F8
:1008D0008D8387FDE4CF61E083E00E94F4038D8186
:1008E000882321F09D81923009F05CC14801B12C30
:1008F000A12C60E072E18AE790E0A50198010E94D6
:10090000212129833A834B835C8369017A0181E049
:10091000C81AD108E108F1089FEFC916D104E10413
:10092000F10409F00CF413C160E472E48FE090E08C
:10093000A50198010E94212169017A0181E0C81A6C
:10094000D108E108F1089D81923009F098C08FEF3D
:10095000C816D104E104F10409F00CF4DDC160E92A
:1009600070ED83E090E0A50198010E9421216901CA
:100970007A0191E0C91AD108E108F1088FEFC81691
:10098000D104E104F10411F00CF0A3C183E09091D3
:10099000B100987F892B8093B100E1C083E0809300
:1009A0000D01E7EBF0E094919D839F3F09F477CF31
:1009B000913029F158F0923009F43FC08D8187FDC4
:1009C0006ECF61E083E00E94F4038CCF14BC15BCB1
:1009D00084B5826084BD85B5816085BDE5ECF0E0BD
:1009E000E491F0E0EE0FFF1FE854FF4F85919491E2
:1009F000E9EDF0E0E491E09330031D826CCF1092BA
:100A00008000109281008091810088608093810035
:100A100080918100816080938100E5ECF0E0E491B9
:100A2000F0E0EE0FFF1FE854FF4F85919491E9ED40
:100A3000F0E0E491E0932F034ECF1092B0001092BB
:100A4000B1008091B00082608093B0008091B100CD
:100A500081608093B100E5ECF0E0E491F0E0EE0F0E
:100A6000FF1FE854FF4F8591949190932E0380933C
:100A70002D03E9EDF0E0E491E0932C032CCF9FEF00
:100A8000C916D104E104F10409F00CF489C068E44A
:100A900078EE81E090E0A50198010E942121690192
:100AA0007A0181E0C81AD108E108F1089D819923F3
:100AB00009F428C19FEFC916D104E104F10409F03B
:100AC0000CF41EC162E17AE780E090E0A501940198
:100AD0000E94212169017A0181E0C81AD108E10848
:100AE000F1089D81992309F4EBC08FEFC816D1045A
:100AF000E104F10411F008F0BFC086E048CF64E2E1
:100B000074EF80E090E0A50194010E942121690129
:100B10007A0181E0C81AD108E108F10885E09FEF69
:100B2000C916D104E104F10409F008F430CF62E100
:100B30007AE780E090E0A50194010E9421216901FB
:100B40007A0191E0C91AD108E108F108CECF81E01D
:100B50009D8191111CCF95B5987F892B85BD2FEF75
:100B60003FEFA901411451046104710409F043C02D
:100B70009D81913009F45EC0923009F46DC09111ED
:100B80008ECEC7BC2093390330933A0340933B0386
:100B900050933C0380916E00826080936E007FCE04
:100BA00082E0D6CFB12CA12C60E072E18AE790E020
:100BB000A50198010E94212169017A0181E0C81AEA
:100BC000D108E108F108C114D10491E0E906F1046B
:100BD00004F591E08D81813011F680918100887F4C
:100BE000892B809381002FEF3FEFA901411451041D
:100BF00061047104F9F0D801AA0FBB1FA30192018F
:100C00000E94402128EE33E040E050E00E948A211B
:100C1000AFCF68E478EE81E090E0A50198010E94F2
:100C2000212169017A0181E0C81AD108E108F1089F
:100C300093E0D0CFD0928900C092880020933503F2
:100C400030933603409337035093380380916F00FD
:100C5000826080936F0023CEC092B3002093310353
:100C600030933203409333035093340380917000E8
:100C700082608093700013CEC980DA80EB80FC80A4
:100C80009AE0F594E794D794C7949A95D1F791E0B8
:100C9000C91AD108E108F10887E079CEC980DA8065
:100CA000EB80FC808AE0F594E794D794C7948A950A
:100CB000D1F791E0C91AD108E108F10885E04BCFDE
:100CC0008FEFC816D104E104F10409F038F784E08D
:100CD00042CF68E478EE81E090E0A50198010E949F
:100CE000212169017A0191E0C91AD108E108F108CE
:100CF0008FEFC816D104E104F10411F00CF0FFCE1F
:100D000084E045CE8FEFC816D104E104F10411F060
:100D10000CF0D8CE83E01FCF82E039CE8E3008F0C1
:100D20008E508770806480937C0080917A0080640C
:100D300080937A0080917A0086FDFCCF80917800C4
:100D40009091790008953FB7F89480916D02909149
:100D50006E02A0916F02B091700226B5A89B05C0EB
:100D60002F3F19F00196A11DB11D3FBFBA2FA92F2A
:100D7000982F8827BC01CD01620F711D811D911D27
:100D800042E0660F771F881F991F4A95D1F7089593
:100D90000F931F93CF93DF93CDB7DEB729970FB68D
:100DA000F894DEBF0FBECDBF8091C1039091C20306
:100DB000892B09F47CC00E94A3060091C7031091FF
:100DC000C8032091C9033091CA03601771078207D5
:100DD000930740F46093C7037093C8038093C903DB
:100DE0009093CA030091C7031091C8032091C903CF
:100DF0003091CA03601B710B820B930B6C327140F4
:100E000081059105C0F2F8948091BC039091BD03D7
:100E10009A838983E091C103F091C203DF011196A7
:100E2000808189879091B803E091CB03F091CC0346
:100E30008091CD03992309F445C09081982B988720
:100E40009081809589238F838F818C8388E08B8329
:100E500058856F8149853B812C8189819A81508396
:100E600047FD252F3A952083262F39F0441F00C0D7
:100E700000006083000000C0F2CF38E04D91608335
:100E80000000019761F7F093CC03E093CB0349870F
:100E90003B832C839A83898378940E94A306609372
:100EA000C7037093C8038093C9039093CA0329961C
:100EB0000FB6F894DEBF0FBECDBFDF91CF911F916B
:100EC0000F9108959081982B988790818095892320
:100ED0008F838F818E8388E08D8358856F814985CC
:100EE0003D812E8189819A81508347FD252F00C045
:100EF00000C0208300C000C000C000C000C06083EC
:100F00000000262F3A9541F0441F000000C000C0A9
:100F100000C000C000C0E8CF38E04D9100C0608341
:100F200000C0019709F7F093CC03E093CB03498706
:100F30003D832E83AFCF8F929F92AF92BF92CF927D
:100F4000DF92EF92FF924B015C010E94A3066B01BE
:100F50007C010E94A3066C197D098E099F09683ED9
:100F6000734081059105A8F321E0821A9108A10838
:100F7000B10888EEC80E83E0D81EE11CF11C811474
:100F80009104A104B10429F7FF90EF90DF90CF9076
:100F9000BF90AF909F908F9008952FB7F894609175
:100FA000690270916A0280916B0290916C022FBF6E
:100FB000089583E00E94A00380E00E9404020C9444
:100FC000C80681E00E9404020C94C8060F931F9388
:100FD000CF93DF93D82F0DE912E0C0E0CD1751F089
:100FE000F80180810E5F1F4F0E94CB03892B41F0D7
:100FF000CF5FF4CF80E0DF91CF911F910F910895E3
:1010000081E0F9CFCF92DF92EF92FF92CF93DF93FF
:10101000EC010E94CD07C880D980EA80FB806C1962
:101020007D098E099F0921E0CC80DD80EE80FF8064
:10103000C616D706E806F90608F020E0822FDF91F1
:10104000CF91FF90EF90DF90CF900895CF93DF93F3
:10105000EC010E94CD07688379838A839B83DF91AB
:10106000CF910895FF920F931F93CF93DF930DE6D7
:1010700013E0D0E0C0E0F801F1908F01CE010E94B2
:101080000B21F81621F06F2DCE010E94132121961D
:10109000C333D10581F78DE693E0DF91CF911F91A6
:1010A0000F91FF9008951F922AE02F939F938F93A3
:1010B0008BE491E09F938F938DE393E09F938F93C5
:1010C0000E9446248DB79EB708960FB6F8949EBF2F
:1010D0000FBE8DBF0C94ED000F931F93CF93DF9342
:1010E00000D000D01F92CDB7DEB71F9282E08F9361
:1010F00081E591E09F938F938E010F5F1F4F1F93A8
:101100000F930E944624F80101900020E9F73197DF
:10111000AF01401B510BB8018EEC93E00E944302DB
:101120004DE353E0FA0101900020E9F7AF014E537F
:1011300053406DE373E08EEC93E00E9443026AE05B
:101140008EEC93E00E94E3020F900F900F900F90AF
:101150000F900F900F900F900F900F900F90DF91C6
:10116000CF911F910F910895CF93DF93EC01888168
:1011700099818130910531F48A810E94CB03DF91FE
:10118000CF91089582309105B9F48A810E948E062C
:101190009D838C832E813F81281B390B37FF03C031
:1011A000319521953109488559859F838E83421752
:1011B000530724F481E0E3CF039711F080E0DFCF01
:1011C0008C819D8101969D838C830E94691D28E0FE
:1011D00037E0281B390B8C819D818217930774F3AC
:1011E0001D821C82E7CF1F920F920FB60F9211241F
:1011F0002F933F934F935F936F937F938F939F931F
:10120000AF93BF93EF93FF9380913103909132039B
:10121000A0913303B0913403892B8A2B8B2BD1F10E
:1012200090912C03E0912D03F0912E03808189276A
:1012300080838091310390913203A0913303B09168
:101240003403181619061A061B069CF48091310304
:1012500090913203A0913303B09134030197A10917
:10126000B1098093310390933203A0933303B09379
:101270003403FF91EF91BF91AF919F918F917F9137
:101280006F915F914F913F912F910F900FBE0F90F3
:101290001F90189580910D010E94A003EACF1F9224
:1012A0000F920FB60F9211242F933F934F935F939A
:1012B0006F937F938F939F93AF93BF93EF93FF931E
:1012C0008EEC93E00E94C102FF91EF91BF91AF912C
:1012D0009F918F917F916F915F914F913F912F914E
:1012E0000F900FBE0F901F9018951F920F920FB680
:1012F0000F9211242F938F939F93EF93FF93E0917D
:10130000DE03F091DF038081E091E403F091E503D7
:1013100082FD1BC090818091E7038F5F8F732091C6
:10132000E803821741F0E091E703F0E0E253FC4F5D
:10133000958F8093E703FF91EF919F918F912F916C
:101340000F900FBE0F901F9018958081F4CF1F92C1
:101350000F920FB60F9211242F933F938F939F9369
:10136000AF93BF938091690290916A02A0916B0242
:10137000B0916C023091680223E0230F2D3758F5AD
:101380000196A11DB11D209368028093690290937C
:101390006A02A0936B02B0936C0280916D029091EF
:1013A0006E02A0916F02B09170020196A11DB11D55
:1013B00080936D0290936E02A0936F02B0937002BF
:1013C000BF91AF919F918F913F912F910F900FBE41
:1013D0000F901F90189526E8230F0296A11DB11DAE
:1013E000D2CF1092D1031092D00388EE93E0A0E008
:1013F000B0E08093D2039093D303A093D403B0932F
:10140000D5038DE391E09093CF038093CE0385ECD9
:1014100090E09093DB038093DA0384EC90E0909368
:10142000DD038093DC0380EC90E09093DF038093F6
:10143000DE0381EC90E09093E1038093E00382EC83
:1014400090E09093E3038093E20386EC90E0909326
:10145000E5038093E4031092E7031092E8031092EF
:10146000E9031092EA031092A7041092A8041092C4
:10147000A9041092AA041092AB041092AC0410922A
:10148000AD041092AE0410929F041092A00410922A
:10149000A1041092A2041092A3041092A40410922A
:1014A000A5041092A604109297041092980410922A
:1014B000990410929A0410929B0410929C0410922A
:1014C0009D0410929E048091960481111CC08EECA4
:1014D00093E090938E0480938D048BE694E0909338
:1014E000900480938F0480E290E090939404809322
:1014F000930410929204109291048AE080939504D0
:1015000081E08093960481E08093B8031092B90340
:101510001092BB031092BA031092BD031092BC0349
:101520002FEF3FEF3093BF032093BE031092C00311
:101530001092C2031092C1038093C3031092C4039C
:1015400092E09093C5038093C6031092C703109254
:10155000C8031092C9031092CA0380E090E0AFEF75
:10156000B0E08093A8039093A903A093AA03B0933B
:10157000AB0380E09FEFA0E0B0E08093AC039093DA
:10158000AD03A093AE03B093AF038FEF90E0A0E064
:10159000B0E08093B0039093B103A093B203B093F3
:1015A000B3038FEF9FEFAFEFB0E08093B40390935E
:1015B000B503A093B603B093B7030895789484B5A8
:1015C000826084BD84B5816084BD85B5826085BD3F
:1015D00085B5816085BD80916E00816080936E00CD
:1015E00010928100809181008260809381008091BF
:1015F0008100816080938100809180008160809370
:1016000080008091B10084608093B1008091B0002F
:1016100081608093B00080917A00846080937A002A
:1016200080917A00826080937A0080917A00816054
:1016300080937A0080917A00806880937A0010927B
:10164000C100E091DE03F091DF0382E08083E0914E
:10165000DA03F091DB031082E091DC03F091DD030B
:1016600080E180831092E603E091E203F091E303CE
:1016700086E08083E091E003F091E1038081806166
:101680008083E091E003F091E103808188608083B2
:10169000E091E003F091E103808180688083E09134
:1016A000E003F091E10380818F7D808384E10E94DB
:1016B0008E06EC0185E10E948E06BE01680F791F3F
:1016C000072E000C880B990B61157105810591059A
:1016D00011F00E94141E80E190E090939E0280938E
:1016E0009D028EE090E09093A00280939F0281E1A2
:1016F00090E09093A2028093A1028FE090E09093FB
:10170000A4028093A30262E080E10E94F40362E0FD
:101710008EE00E94F40362E081E10E94F40362E043
:101720008FE00E94F4030DE613E0D0E0C0E0CE01AC
:101730000E940B21D8018D938D012196C333D105D1
:10174000B1F780916D03873019F10E94AB000E94C0
:1017500032081F928AE08F9380916D031F928F93BE
:101760008AE591E09F938F938DE691E09F938F930D
:101770008DE393E09F938F930E9446240E94ED0097
:10178000EDB7FEB73A960FB6F894FEBF0FBEEDBFA9
:101790000091760310917703E801CC0FDD1FC00F95
:1017A000D11FCE010E941A23009721F4D0E0C0E09F
:1017B00010E000E0E4ECF0E0E491F0E0EE0FFF1F59
:1017C000E854FF4F45915491E8EDF0E0E49121E0B9
:1017D0002093B8031092B9031093BB030093BA038C
:1017E000D093BD03C093BC0362E070E07093BF036D
:1017F0006093BE031092C0039093C2038093C10311
:101800002093C3031092C403C2E0C093C503209386
:10181000C6031092C7031092C8031092C903109216
:10182000CA035093CC034093CB03E093CD030E94B3
:10183000B62360E082E00E94F403C0932603C091C7
:10184000A1028C2F0E94CB03892B89F080916E031B
:1018500090E09C0115E0359527951A95E1F704E095
:10186000959587950A95E1F7822B80FF03C083E069
:10187000809326038091A3020E94CB0320916E03E4
:10188000892B11F025FF05C0809126038F5F80937F
:101890002603822F90E0D6E095958795DA95E1F7BB
:1018A000982F91709093280323E030E080FD02C0D0
:1018B00021E030E090912603E1E7F2E0ADE9B2E00B
:1018C00080E045E050E098132FC0A8EAB3E0EAEAD0
:1018D000F2E021E732E090E0D1E040E050E068EC57
:1018E00072E4981761F1CD90DD90ED90FD90318319
:1018F0002083C08AD18AE28AF38AD48B128213822F
:10190000148215821682178210861186128613861B
:1019100014861586408F518F628F738F148E9F5F50
:10192000255F3F4F7D96DDCF6D917D913183208383
:1019300073836283518740878F5F3B96C4CF8091CA
:10194000BE039091BF0397FD07C061E00E94F403BE
:101950008091BE030E94790381E08093B90380E007
:101960000E94040280919F020E94CB03892B09F4FC
:10197000E3C0809176039091770320916E0322FD5E
:10198000DBC01816190674F49093790380937803DA
:1019900010927B0310927A038FEF9FEF90937D0359
:1019A00080937C038C2F0E94CB03892B21F08091A4
:1019B0006E0383FF1CC0C1E0C093A6030E948C018C
:1019C0000E94C80660ED77E080E090E00E949B07EF
:1019D00080919D020E94CB03892B49F4C093A902F8
:1019E00040E050E0BA0184E690E00E94300410929A
:1019F0002B031092290310922A0380916F03809386
:101A00001E038091700380931F0380917103809364
:101A1000200380917203809321031092AB041092F3
:101A2000AC041092AD041092AE0487EA94E00E94D8
:101A3000260883E090E09093250380932403412CB3
:101A4000512CC8EC6C2EC2E47C2E80919604882325
:101A500009F4C8C080918D0490918E04DC01ED9151
:101A6000FC910084F185E02D0995892B09F498C338
:101A70008091910490919204209193043091940468
:101A800022503109821793070CF08AC080918D048F
:101A900090918E04DC01ED91FC910284F385E02DA0
:101AA0000995909195042091910430919204409170
:101AB0008F0450919004891367C0420F531FFA019D
:101AC000108210929204109291042115310509F4AC
:101AD00067C337FD72C000916B04073409F4C0C4BA
:101AE0000CF08DC10F3309F458C50CF098C00532C5
:101AF00009F473C50CF079C0033209F43CC3043215
:101B000009F42AC51F928AE08F9386E591E09F939E
:101B10008F9380E392E09F938F938DE393E09F9365
:101B20008F930E944624ADB7BEB718960FB6F894AF
:101B3000BEBF0FBEADBFE9C281E08093A703209175
:101B400076033091770340917E0350917F03C90162
:101B5000841B950B82179307A4F4009709F09C014E
:101B60003093790320937803009711F450E040E01C
:101B700050937B0340937A03019790937D03809366
:101B80007C030E94E7010ECFB9016F5F7F4F709316
:101B9000920460939104240F351FD9018C935ACF7E
:101BA000E0918F04F0919004E80FF91F10821092D9
:101BB0009204109291042EEF3FEF3F932F9385E70D
:101BC00091E09F938F938DE393E09F938F930E9477
:101BD00046240E946C080F900F900F900F900F906A
:101BE0000F9079CF2FEF3FEFE8CF0A3209F409C306
:101BF0000A3309F087CF8CE694E0FC0101900020C5
:101C0000E9F7CF018D569440419710F00C94EC1CED
:101C10006CE674E08FE893E00E943F2483C20234B4
:101C200009F4D3C30CF099C0003409F4DBC20134C9
:101C300009F068CF6DE971E08BE694E00E943F1EE9
:101C4000009711F40C94EC1C64E571E00E943F1EB7
:101C5000009711F40C94EC1C0E94211E7C0164E599
:101C600071E090E080E00E943F1E009711F40C9418
:101C7000EC1C0E94211EEC0164E571E090E080E024
:101C80000E943F1E009711F40C94EC1C0E94211E30
:101C90005C0164E571E090E080E00E943F1E0097E7
:101CA00011F40C94EC1C0E94211EC82E64E571E016
:101CB00090E080E00E943F1E009711F40C94EC1C11
:101CC0000E94211E2091780330917903E216F306D9
:101CD00014F00C94EC1C1E141F0414F00C94EC1C57
:101CE000C217D30714F00C94EC1C1C161D0614F03C
:101CF0000C94EC1CA216B30614F00C94EC1C1A14F1
:101D00001B0414F00C94EC1CEC16FD0614F00C945F
:101D1000EC1CCA15DB0514F00C94EC1C8230910508
:101D200010F00C94EC1CF0928903E0928803D0939D
:101D30008B03C0938A03B0928D03A0928C03C09250
:101D40008E0320916E03892B09F486C328602093AB
:101D50006E0381E08093A6037AC3043409F4EDC3D3
:101D60000CF4B5C2053409F0CDCE6FE971E08BE615
:101D700094E00E943F1E009711F40C94EC1C64E563
:101D800071E00E943F1E009711F40C94EC1C0E941D
:101D9000211E182F64E571E090E080E00E943F1E54
:101DA000009711F40C94EC1C0E94211ED82F64E5BE
:101DB00071E090E080E00E943F1E009711F40C94C7
:101DC000EC1C0E94211EC82F64E571E090E080E0C9
:101DD0000E943F1E009711F40C94EC1C0E94211EDF
:101DE00010937303D0937403C093750390916E03A3
:101DF000882309F433C3916090936E030BC20235BC
:101E000009F40CC20CF084C10D3409F43FC30CF08A
:101E100069C0083409F484C30B3409F073CE68E553
:101E200071E08BE694E00E943F1E009711F40C9441
:101E3000EC1C64E571E00E943F1E009711F40C94C5
:101E4000EC1C0E941D1E4B015C0164E571E090E0FA
:101E500080E00E943F1E009711F40C94EC1C0E943D
:101E60001D1E6B017C0120E030E0A901C501B40119
:101E70000E94E41F181614F00C94EC1C20E030E0D3
:101E800040E050E4C501B4010E94D02287FD02C0A9
:101E90000C94EC1C20E030E0A901C701B6010E94BF
:101EA000E41F181614F00C94EC1C20E030E040E025
:101EB00050E4C701B6010E94D02287FD02C00C94F5
:101EC000EC1CC0928003D0928103E0928203F092D6
:101ED00083038092840390928503A0928603B0923C
:101EE000870398C1003509F4F6C2013509F00ACE1E
:101EF000C0916E038090800390908103A090820334
:101F0000B0908303C0908403D0908503E090860353
:101F1000F09087031F92BAE03B2E3F928C2F86955C
:101F200081701F928F9320E030E04AE754E4C501AE
:101F3000B4010E944A200E949A2208EE13E0CB01CD
:101F4000B8010E94F9229F938F93C501B4010E94AA
:101F50009A227F936F9320E030E04AE754E4C70170
:101F6000B6010E944A200E949A22CB01B8010E9429
:101F7000F9229F938F93C701B6010E949A227F9303
:101F80006F93C2FBCC27C0F91F92CF9380917F0340
:101F90008F9380917E038F9380917D038F938091A7
:101FA0007C038F9380917B038F9380917A038F932F
:101FB000809179038F93809178038F938091770339
:101FC0008F93809176038F9382EB91E09F938F9311
:101FD00086EB91E09F938F93CDE3D3E0DF93CF9394
:101FE0000E9446240E94ED001F923F9280916E0352
:101FF00083FB882780F91F928F9380918E031F9215
:102000008F9380918D038F9380918C038F93809118
:102010008B038F9380918A038F93809189038F9391
:10202000809188038F9380EE91E09F938F9384EE4D
:1020300091E09F938F93DF93CF930E9446248DB7B7
:102040009EB7C0960FB6F8949EBF0FBE8DBF0E947C
:10205000ED001F923F9280916E0381701F928F93CB
:10206000809175031F928F93809174031F928F93B9
:10207000809173031F928F9388EF91E09F938F93CA
:102080008CEF91E09F938F93DF93CF930E94462430
:102090000E94ED0080916E031F923F9290912B035E
:1020A0001F929F9386FB992790F91F929F9385FB20
:1020B000992790F91F929F93829581701F928F9319
:1020C000809172031F928F93809171031F928F935F
:1020D000809170031F928F9380916F031F928F9353
:1020E0008DE092E09F938F9381E192E09F938F9395
:1020F000DF93CF930E9446244DB75EB7485D5F4F94
:102100000FB6F8945EBF0FBE4DBF0E94ED0048C0F1
:102110000E3609F482C24CF4043509F430C1073597
:1021200009F0F0CC0E94320875C0053709F486C06A
:10213000073709F4B1C0043709F0E4CC8CE694E029
:102140000E94211E882311F40C94EC1C209126037C
:10215000281710F40C94EC1C8150990B2DE1289F4A
:10216000F001299FF00D1124E655FD4F81E090E02C
:10217000968B858B4FC01F928AE08F9387E991E001
:102180009F938F938DE393E09F938F930E944624B8
:102190000E94ED000F900F900F900F900F900F90F6
:1021A00080912A03882309F444C2109228031092D4
:1021B0002A0350912603E1E7F2E0ADE9B2E040E006
:1021C00021E030E0541709F461C28D919D91318373
:1021D00020839383828385E090E0918780874F5F9F
:1021E0003B96F0CF8091240390912503019791F0C5
:1021F00081E090E090932503809324030E94D90707
:1022000009C08091240390912503019719F481E07E
:102210008093230387E591E00C94EE1C8CE694E018
:102220000E94211E893010F00C94EC1C9927909389
:10223000250380932403019769F7E0CF60916C0434
:10224000862F82958695877011F40C94EC1C9091E2
:102250002603981710F40C94EC1C8150990B2DE177
:10226000289FE001299FD00D1124C655DD4F82E043
:1022700090E09E8B8D8B6F7170E090E080E00E940B
:10228000E91F20E030E040E251E40E9428226A8306
:102290007B838C839D8384CF8CE694E00E94211EF7
:1022A000882311F40C94EC1C90912603981710F4D9
:1022B0000C94EC1C90912B03992309F471CF90910D
:1022C000210391116DCF81508093270369CF6FE077
:1022D00072E08BE694E00E943F1E009711F40C948C
:1022E000EC1C64E571E00E943F1E009711F40C9411
:1022F000EC1C0E94211EEC0164E571E090E080E09E
:102300000E943F1E009711F40C94EC1C0E94211EA9
:10231000F82E64E571E090E080E00E943F1E009797
:1023200011F40C94EC1C0E94211E182F64E571E03E
:1023300090E080E00E943F1E009711F40C94EC1C8A
:102340000E94211EC230D10510F00C94EC1C82308A
:10235000910510F00C94EC1CC170C0936F03817058
:1023600080937203F092700310937103C0931E0365
:10237000F0921F0310932003809321034BCF6AEF49
:1023800071E08BE694E00E943F1E892B11F40C94BF
:10239000EC1C8CE694E00E94211E1816190614F01D
:1023A0000C94EC1C909377038093760390937903BD
:1023B0008093780310927B0310927A038FEF9FEF44
:1023C00090937D0380937C0325CF6BE971E08BE6CE
:1023D00094E00E943F1E009711F40C94EC1C64E5FD
:1023E00071E00E943F1E009711F40C94EC1C0E94B7
:1023F000211EEC0164E571E090E080E00E943F1E48
:10240000009711F40C94EC1C0E94211E823091055F
:1024100010F00C94EC1C1C161D0614F00C94EC1C13
:102420002091760330917703C217D30714F00C94F0
:10243000EC1CD0937F03C0937E0320916E03892B05
:1024400049F0246020936E0381E08093A7030E94EB
:10245000E107E0CE2B7FF6CF277F79CC9E7FCCCCD7
:1024600061EA71E08BE694E00E943F1E892B11F433
:102470000C94EC1C8CE694E00E94211E90916E035B
:10248000882311F09260B8CC9D7FB6CC63EA71E0EE
:102490008BE694E00E943F1E892B11F40C94EC1CF7
:1024A0008CE694E00E94211E90916E03882361F0D7
:1024B000906490936E0380912803882309F4AACE38
:1024C00081E080932903A6CE9F7B90936E0381E0E9
:1024D00080932A039FCE62EE71E08BE694E00E9427
:1024E0003F1E892B11F40C94EC1C8CE694E00E94A6
:1024F000211E833061F0843079F0823011F00C9429
:10250000EC1C80916E038F7C80936E0383CE809150
:102510006E038F7D8061F8CF80916E038063F4CF6E
:102520008CE694E00E94211E9FEF980F9E3F10F0D2
:102530000C94EC1C809322036DCE0E94AB000E9491
:10254000320880916E0382FB992790F99093A7033C
:1025500083FB882780F9FECB1F928AE08F938FE858
:1025600093E09F938F9385EA91E09F938F9387EAFF
:1025700091E09F938F938DE393E09F938F930E94BD
:1025800046240E94ED004DB75EB7465F5F4F0FB621
:10259000F8945EBF0FBE4DBF03CE1F928AE08F93AB
:1025A00082E291E09F938F938EEA91E09F938F93C5
:1025B00087EA91E09F938F938DE393E09F938F93AE
:1025C0000E9446240E94ED008DB79EB70A960FB672
:1025D000F8949EBF0FBE8DBFE3CD1F928AE08F930C
:1025E0008CE191E09F938F9380EB91E09F938F9389
:1025F00087EA91E09F938F938DE393E09F938F936E
:102600000E9446240E94ED00ADB7BEB71A960FB6E1
:10261000F894BEBF0FBEADBFC3CD81E080932B0346
:1026200088E090E090932503809324031092270381
:10263000F1CD80912803882331F0809126030E94F8
:10264000E6078111B2CD80912903882309F443C0A4
:1026500081E0809328031092290330912603E1E75B
:10266000F2E0ADE9B2E020E0321709F46EC08D91DE
:102670009D9143E050E0518340839383828385E0C2
:1026800090E0918780872F5F3B96EECF10922703D3
:1026900088E090E090932503809324031F928AE0C2
:1026A0008F931F921F921F928DE48F9385E392E088
:1026B0009F938F938DE393E09F938F930E94462483
:1026C0000E94ED00ADB7BEB71A960FB6F894BEBF24
:1026D0000FBEADBFB8CF80916E0386FF20C0809142
:1026E000280381111CC0809126030E94E6078823DD
:1026F00081F080EE93E9AFEFBFEF8093A304909356
:10270000A404A093A504B093A6048FE994E00E94CA
:1027100026088FE994E00E940208811199CFE09188
:102720002403F0912503E930F10510F00C94E21C2C
:10273000E456FC4E0C940D23FE13CB13FE13F5133D
:10274000A7147915E21CE21C6D1C1092270388E087
:1027500090E090932503809324031F928AE08F9347
:102760001F9281E08F931F928DE48F9385E392E017
:102770009F938F938DE393E09F938F930E944624C2
:102780000E94ED00ADB7BEB71A960FB6F894BEBF63
:102790000FBEADBFC4CF80912303882379F110927F
:1027A000230381E090E090930101809300018093E6
:1027B00002011092AB041092AC041092AD0410927E
:1027C000AE0487EA94E00E94260880912B038111D1
:1027D00009C083E090E090932503809324030E9436
:1027E00053080CC082E090E0F6CF80911E03811167
:1027F00012C080911E03882309F446C080E090E057
:10280000892B09F422C90E94AD02882309F41DC94D
:102810000E9400001AC980916E0381FD2EC0809134
:10282000280381112AC081E00E9404020AEA12E012
:10283000F12CE12CD12CC12CC0912603D0E0EC1658
:10284000FD060CF045C0F801808191810E94B4081A
:1028500081110DC0D80150964D915D916D917C9183
:102860005397C7010E940801BFEFCB1ADB0AEFEFB5
:10287000EE1AFE0A035E1F4FDFCF87EA94E00E9444
:102880000208882309F4B5CF2091260330E0EAEA54
:10289000F2E090E080E041E082179307C4F5448BBA
:1028A0001282138214821582168217821086118674
:1028B00012861386148615864687178A408E518E97
:1028C000628E738E1786168A158A01967D96E4CFDE
:1028D0000E94CD0725E030E040E050E00E948A21D0
:1028E0002F7333274427552760E071E081E090E0A3
:1028F0000E94D522AB01BC018CE090E00E9408014F
:102900000E94C806CC15DD0509F073CFBDCF8EEF50
:102910009FEF9093A1038093A00384E090E09093B5
:1029200025038093240380912B03811104C084E04C
:1029300090E00E94530884E10E948E06EC0185E13C
:102940000E948E068C0F9D1F0E946E1D57CF809196
:102950001E03882309F452CF80910201882339F1A4
:102960001092020180ED97E0A0E0B0E08093AB040C
:102970009093AC04A093AD04B093AE0487EA94E0C6
:102980000E94260881E00E9404028091000190913B
:1029900001018330910509F469C004F58130910586
:1029A00009F43FC0029709F44CC00E94C80687EAA8
:1029B00094E00E940208882309F420CF83E00E945B
:1029C000A00381E0809302018091000190910101B8
:1029D0000196909301018093000110CF84309105FE
:1029E00009F459C0059709F783E00E94A00381E02C
:1029F00090E0909301018093000180930201209167
:102A0000260330E0EAEAF2E090E080E042E050E0C5
:102A1000821793070CF064C0568B458B01967D9608
:102A2000F7CF40E050E0BA0180E991E00E94300425
:102A300040E050E06FEF70E08CE090E00E94080111
:102A4000B4CF40E050E0BA0188E592E00E94300443
:102A500040E050E0BA018CE090E00E94080140E0C4
:102A60005FEF6FEF70E08BE090E0E8CF40E050E088
:102A7000BA0180EB94E00E94300440E050E0BA01DB
:102A80008BE090E00E94080140E05FEF60E070E0C2
:102A90008AE090E0D3CF88E290E0A0E0B0E08093BD
:102AA000AB049093AC04A093AD04B093AE0487EA5A
:102AB00094E00E94260840E050E0BA0180E793E0ED
:102AC0000E94300440E050E0BA018AE090E00E94A9
:102AD00008014FEF5FEF6FEF70E090E080E0AECF66
:102AE00045E050E0509325034093240385E090E0B7
:102AF00076CE81E00E9404028091A703882309F426
:102B0000FBC28091A0039091A103029611F58FEF73
:102B10009FEF9093A1038093A0030E94CD076B01C8
:102B20007C010E94C51D28E833E140E050E00E948E
:102B300021216053784F8F4F9F4FC60ED71EE81E3E
:102B4000F91EC092A203D092A303E092A403F092D4
:102B5000A5038091A0039091A103181619060CF00B
:102B600091C20E947901CAEAD2E0312C212C8091D5
:102B700026038215130409F00CF4F1C18D899E8996
:102B80000297F9F480912B03882309F41FC381E095
:102B90008C8B1E821F82188619861A861B861C86BD
:102BA0001D868E871F8A488E598E6A8E7B8E9F85E2
:102BB00080912003981708F010C343E050E05E8B2B
:102BC0004D8B8D899E89039709F018C18C898130BE
:102BD00009F008C36E817F81888599850E949A22B9
:102BE0002091780330917903CB01B9010E94F92239
:102BF00020917C0330917D0340917A0350917B03B7
:102C0000241B350B8217930709F0ECC28881998148
:102C10000E94B4088111E6C282E08C8B1A861B8662
:102C20001C861D868C89823009F006C3CA84DB8429
:102C3000EC84FD84C701B6010E949A222091A00372
:102C40003091A1032617370739F52DEC3CEC4CE405
:102C50005EE36A817B818C819D810E94E41F18164E
:102C6000DCF06091750370E090E080E00E94EB1F63
:102C70002DEC3CEC4CE45EE30E944A206A837B83AB
:102C80008C839D83AEEFBFEFB093A103A093A0030D
:102C9000488E598E6A8E7B8E8A809B80AC80BD80E8
:102CA00020918003309181034091820350918303EE
:102CB000C501B4010E944A209B01AC01C501B401C9
:102CC0000E94BB219B01AC012A833B834C835D8323
:102CD000C701B6010E94BC216A877B878C879D87CC
:102CE0001E858091780390917903189FB001199FF8
:102CF000700D112461507109072E000C880B990B7F
:102D00000E94EB1F9B01AC016E817F8188859985B4
:102D10000E94D022181614F41F5F1E8708811981A3
:102D2000D8011A968C91813009F4CDC3C12CD12CD5
:102D30007601D8011A968C91811107C0C8010E94B2
:102D4000B408813011F4F8018287288D398D4A8DBD
:102D50005B8DC701B6010E944A2020E030E048ECBC
:102D600052E40E9428229B01AC016A817B818C8104
:102D70009D810E94BC216A837B838C839D838C8987
:102D8000813009F4B0C3823009F44DC42E8580919E
:102D90001F032813FDC48F89811123C080917803FC
:102DA00090917903289FB001299F700D1124809183
:102DB0002203681B7109072E000C880B990B0E94D7
:102DC000EB1F9B01AC016E817F81888599850E94F4
:102DD000D022181634F481E08F8B44E050E05E8BF3
:102DE0004D8B9F8580912003981740F0809121039F
:102DF000882321F0A6E0B0E0BE8BAD8B8D899E8943
:102E0000049701F5E3E0F0E0FE8BED8B1F928AE082
:102E10008F93C10101969F938F938CE392E09F93D0
:102E20008F938DE393E09F938F930E9446240E949B
:102E3000ED004DB75EB7485F5F4F0FB6F8945EBFC9
:102E40000FBE4DBF8D899E89059709F042C01E8A2D
:102E50001D8A1F928AE08F9320E030E040E251E427
:102E60006A817B818C819D810E944A200E94A122DF
:102E70006F7181E0820D8295880F807E682B1F9292
:102E80006F9382E492E09F938F938DE393E09F93FF
:102E90008F930E9446240E94ED001A821B821C829E
:102EA0001D821E821F82188619861A861B861C8622
:102EB0001D8681E08E871F8A488E598E6A8E7B8E92
:102EC0001C8A8DB79EB708960FB6F8949EBF0FBEAA
:102ED0008DBF8D899E89069781F51C8A1F928AE095
:102EE0008F93C10101969F938F9388E492E09F9303
:102EF0008F938DE393E09F938F930E9446240E94CB
:102F0000ED0081E08C8B1A821B821C821D821E8246
:102F10001F82188619861A861B861C861D868E8738
:102F20001F8A488E598E6A8E7B8EADB7BEB71896B3
:102F30000FB6F894BEBF0FBEADBF6D96FE013897B9
:102F400080819181069709F02EC488E090E09093EB
:102F5000250380932403209227030E9453080E9494
:102F6000C8068091A902813009F062C020E030E0FB
:102F70004CED53E46091AC027091AD028091AE02D1
:102F80009091AF020E944A200E949A22C091A7020B
:102F9000D091A802C60FD71F20E030E04CED53E4DB
:102FA0006091C9027091CA028091CB029091CC02CB
:102FB0000E944A209B01AC010E94BC210E949A22DF
:102FC000C60FD71F20E030E04CED53E46091E602DD
:102FD0007091E7028091E8029091E9020E944A20F4
:102FE00020E030E040E450E40E944A200E949A220F
:102FF000C60FD71F20E030E04CED53E4609103038F
:103000007091040380910503909106030E944A2069
:1030100020E030E040E850E40E944A200E949A22DA
:10302000CE01860F971F40E050E0BA010E943004A5
:103030008091A5029091A602181619060CF0B7C34C
:1030400001979093A6028093A50287E994E00E94DD
:103050000208882309F4D2CB4091260350E0EAEA23
:10306000F2E030E020E0241735070CF0A5C391E032
:1030700065897689672B09F090E089232F5F3F4FA0
:103080007D96F1CF0E94CD070091A2031091A3037A
:103090002091A4033091A5030617170728073907C5
:1030A00008F061CDC0907A03D0907B0384E1C81A08
:1030B000D1080D2C000CEE08FF0895E1C916D104CB
:1030C000E104F104A4F00E94C51DA701960124515A
:1030D0003109410951090E942121DC01CB014496AB
:1030E000A11DB11D9093A1038093A0033CCD84E169
:1030F00090E0A0E0B0E0F6CF80916E0380FF33CD8A
:103100008091A0039091A103029611F58FEF9FEF9C
:103110009093A1038093A0030E94CD076B017C01D3
:103120000E94C51D28E833E140E050E00E942121C3
:103130006854744F8F4F9F4FC60ED71EE81EF91E5E
:10314000C092A203D092A303E092A403F092A5033D
:103150008091A0039091A103181619060CF401CDDB
:103160000E94CD070091A2031091A3032091A40314
:103170003091A503061717072807390708F0F3CC85
:10318000C0907803D0907903BCE3CB1AD1080D2C02
:10319000000CEE08FF0880E190E0A0E0B0E0E1E183
:1031A000CE16D104E104F1040CF49CCF0E94C51D9D
:1031B000A701960120513109410951090E9421219D
:1031C000DC01CB014096A11DB11D8CCF81E08C8B21
:1031D0001A821B821C821D82DCCC85E090E09E8BD3
:1031E0008D8BEFCC8C89823009F01CCD60917A03F5
:1031F00070917B03072E000C880B990B0E94EB1F2C
:103200006B017C01AC019B016A857B858C859D856A
:103210000E94D02218160CF005CD81E08C8BA701FE
:1032200096016E817F81888599850E94BC216E837D
:103230007F8388879987F6CC813009F051CD009142
:103240007803109179038091A603882309F461C063
:103250006E817F81888599850E949A22CB01B80171
:103260000E94F9227C018091880390918903E816DD
:10327000F90624F180918A0390918B03E816F906F0
:10328000ECF460918E0370E090E080E00E94EB1F10
:1032900020918403309185034091860350918703E8
:1032A0000E944A209B01AC016A817B818C819D81B7
:1032B0000E94BB216A837B838C839D8380918C03D6
:1032C00090918D038E159F0524F180918A03909132
:1032D0008B038E159F05ECF460918E0370E090E0F7
:1032E00080E00E94EB1F2091840330918503409180
:1032F0008603509187030E944A209B01AC016A819A
:103300007B818C819D810E94BC216A837B838C831D
:103310009D8380916E0380FF91C06E817F8188853F
:1033200099850E949A22CB01B8010E94F922081BBC
:10333000190B8091A0039091A1030817190741F47C
:10334000888199810E94B408811102C081E08C8F2C
:103350008C8D882309F443C06091730370E090E082
:1033600080E00E94EB1F20E030E048EC52E40E9435
:1033700028229B01AC010E94BC21288D398D4A8DE9
:103380005B8D0E94BC21688F798F8A8F9B8F1A82F8
:103390001B821C821D8220E030E048EC52E40E9437
:1033A000D0221816E4F4EEEFFFEFF093A103E093C0
:1033B000A003488E598E6A8E7B8E1C8E6091750399
:1033C00070E090E080E00E94EB1F2DEC3CEC4CECB8
:1033D0005DE30E944A206A837B838C839D83E8811E
:1033E000F9818285811151C0C88CD98CEA8CFB8C03
:1033F0006091740370E090E080E00E94EB1F9B01FD
:10340000AC01C701B6010E94D02287FD17C06091B0
:10341000730370E090E080E00E94EB1F20E030E05A
:1034200048EC52E40E9428229B01AC01C701B6017E
:103430000E94BB21688F798F8A8F9B8FCA80DB8027
:10344000EC80FD80209180033091810340918203C4
:1034500050918303C701B6010E944A209B01AC0131
:10346000C701B6010E94BB219B01AC012A833B83AB
:103470004C835D836E817F81888599850E94BC2104
:103480006E837F83888799872BCC8130B9F68C8DAA
:103490008823A1F21C8E6091750370E090E080E0BB
:1034A0000E94EB1F2DEC3CEC4CEC5DE30E944A20AB
:1034B00020E030E040E05FE30E944A206A837B83A3
:1034C0008C839D83BBCFC8010E94B40881112ECC90
:1034D000F8011286ADECCA2EACECDA2EACE4EA2E82
:1034E000AEE3FA2E26CCC888D988EA88FB886E819C
:1034F0007F81888599850E94A1222091780330914F
:103500007903CB01B9010E94E522B701A6010E940F
:103510000801C888D988EA88FB886E817F81888500
:1035200099850E94A1222091780330917903CB01E3
:10353000B9010E94E522B701A60101970E94080186
:1035400080916E0380FF22CC8C8D8823C9F10E946C
:10355000CD076B017C01688D798D8A8D9B8D0E94D2
:10356000A12270E0660F771F29EC30E0261B370B95
:10357000032E000C440B550BC701B6010E948A2193
:10358000217033274427552760E072E382E390E0FF
:103590000E94D5226B017C016E817F81888599858F
:1035A0000E94A1222091780330917903CB01B901C7
:1035B0000E94E522B701A60102970E940801E6CB0E
:1035C0006091740370E090E080E00E94EB1F9B012B
:1035D000AC01688D798D8A8D9B8D0E94E41F181631
:1035E0000CF4D4CB0E94CD0724E630E040E050E05C
:1035F0000E948A21633371058105910508F4C6CBC9
:103600006E817F81888599850E94A122209178030F
:1036100030917903CB01B9010E94E52240E054E1E9
:1036200060E270E0C9CF10E000E0C888D988EA887D
:10363000FB88609178037091790380917A0390916F
:103640007B03680F791F072E000C880B990B0E94D3
:10365000EB1F2A853B854C855D850E94BB210E941E
:10366000A122C801860F971FB701A6010E94080179
:103670000130110509F04AC080916E0380FF86CBAE
:103680008C8D882309F445C00E94CD076B017C0115
:10369000688D798D8A8D9B8D0E94A12270E0660FC6
:1036A000771F29EC30E0261B370B032E000C440B50
:1036B000550BC701B6010E948A2121703327442788
:1036C000552760E072E382E390E00E94D5226B010F
:1036D0007C01609178037091790380917A039091D5
:1036E0007B03680F791F072E000C880B990B0E9433
:1036F000EB1F2A853B854C855D850E94BB210E947E
:10370000A122CB010296B701A60157CF01E010E03C
:103710008CCF6091740370E090E080E00E94EB1F1A
:103720009B01AC01688D798D8A8D9B8D0E94E41F71
:1037300018160CF42BCB0E94CD0724E630E040E0B5
:1037400050E00E948A21633371058105910508F4D8
:103750001DCB609178037091790380917A039091E9
:103760007B03680F791F072E000C880B990B0E94B2
:10377000EB1F2A853B854C855D850E94BB210E94FD
:10378000A122CB01029640E054E160E270E015CF47
:10379000821708F026CB8F858F5F8F8785E090E0BA
:1037A0009E8B8D8B1ECBBFEF2B1A3B0AE0C910926C
:1037B000A8021092A70249CC81117DC0CAEAD2E0CA
:1037C000F12CE12C4AE0942E5EE4A52E52E0B52EB9
:1037D0006DE3C62E63E0D62E809126038E151F045E
:1037E00009F00CF468C08C88E1E08E1639F0F2E044
:1037F0008F1609F450C010E000E01EC0009178035D
:10380000109179036E817F81888599850E949A2223
:10381000CB01B8010E94F92223E630E0DC010E94CE
:103820001323980121503109032E000C440B550B32
:103830000E942121122F032F2FEFE21AF20A1F926A
:103840009F92688D798D8A8D9B8D0E949A227F939D
:103850006F930F931F938E851F928F93882D90E007
:10386000880F991F8D5F9E4F9F938F93FF92EF92CA
:10387000BF92AF92DF92CF920E9446240E94ED0049
:103880006D964DB75EB7405F5F4F0FB6F8945EBF61
:103890000FBE4DBFA1CF6A857B858C859D850E941B
:1038A0009A22DB0123E630E00E94132320917A0361
:1038B00030917B03B7CF8AEF90E0A0E0B0E0809337
:1038C0009B0490939C04A0939D04B0939E0487E96D
:1038D00094E00E9426080C94FE1380E00E940402EB
:1038E0000E94C806E09127035DE1E59FF0011124E5
:1038F000E655FD4FC088D188E288F388C0E1D0E06A
:103900000CE211E08091780390917903C817D907F0
:10391000ECF4B701A601CE010E94080140E050E09E
:10392000BA01CE0140970E9408010E94C80680910A
:1039300078039091790323E0880F991F2A95E1F786
:10394000B8010E94F922C60FD71FDCCFC7E2D1E031
:1039500009E311E048EC50E060E070E08991999152
:103960000E94300466EE70E080E090E00E949B07C9
:1039700083E00E94A0030C171D0761F780E00E94FE
:1039800004020E94C80688E893E1A0E0B0E08093BA
:10399000AB049093AC04A093AD04B093AE0487EA5B
:1039A00094E00E94260880912B03811108C083E0D7
:1039B00090E090932503809324030C94FE1390E0F1
:1039C00080E0F7CF6EE572E08DE393E00E943F2444
:1039D0000E946C080C94FE1386E591E01F922AE089
:1039E0002F939F938F93802F002E000C990B9F9302
:1039F0000F938EE292E09F938F938DE393E09F93DA
:103A00008F930E9446248DB79EB70A960FB6F894FE
:103A10009EBF0FBE8DBF0C9485108091C103909105
:103A2000C2030E94B6238091BE039091BF0397FD0D
:103A300003C060E00C94F40308958F929F92AF92BC
:103A4000BF92CF92DF92EF92FF92CF93DF93EC0180
:103A5000688179818A819B81611571058105910554
:103A600021F464E279ED8BE597E02DE133EF41E05D
:103A700050E00E94212149015A019B01AC01A7EAB3
:103A8000B1E40E9440216B017C01ACEEB4EFA501D2
:103A900094010E944E21DC01CB018C0D9D1DAE1DB9
:103AA000BF1DB7FF03C00197A109B0488883998360
:103AB000AA83BB839F77DF91CF91FF90EF90DF9038
:103AC000CF90BF90AF909F908F9008950E941D1D42
:103AD00008958EE091E00E941D1D0895B0E0A0E0E1
:103AE00080930E0190930F01A0931001B0931101E8
:103AF00008958F929F92AF92BF92CF92DF92EF92F2
:103B0000FF92CF93DF93EC01688179818A819B8159
:103B1000611571058105910521F464E279ED8BE56C
:103B200097E02DE133EF41E050E00E94212149016F
:103B30005A019B01AC01A7EAB1E40E9440216B014C
:103B40007C01ACEEB4EFA50194010E944E21C60E9B
:103B5000D71EE81EF91EF7FE06C081E0C81AD1087C
:103B6000E10880E8F80AC882D982EA82FB82C701AC
:103B7000B6019F77DF91CF91FF90EF90DF90CF90CC
:103B8000BF90AF909F908F9008958F929F92AF9229
:103B9000BF92CF92DF92EF92FF92609112017091EB
:103BA0001301809114019091150161157105810532
:103BB000910521F464E279ED8BE597E02DE133EF97
:103BC00041E050E00E94212149015A019B01AC01D2
:103BD000A7EAB1E40E9440216B017C01ACEEB4EF96
:103BE000A50194010E944E21C60ED71EE81EF91EA3
:103BF000F7FE06C081E0C81AD108E10880E8F80A9B
:103C0000C0921201D0921301E0921401F0921501BA
:103C1000C701B6019F77FF90EF90DF90CF90BF90E4
:103C2000AF909F908F90089560931201709313014D
:103C300080931401909315010895662777270C94BB
:103C4000731EFC0188279927E89421912032E9F31B
:103C5000293010F02E30C8F32B3241F02D3239F4D8
:103C6000689404C00E946B1E820F911D2191205305
:103C70002A30C0F31EF4909581959F4F08954FEA26
:103C800054E00E94441E0895FA01A191B08100976A
:103C900019F41097E1F0CD01DC01CD010D90002069
:103CA00011F4C00113C0FB012191222319F020154A
:103CB000D9F7F3CFFB012191201519F41E9211962B
:103CC00006C02223C1F70D900020A1F7D001FA0110
:103CD000A193B08308957AE0979F902D879F802DC0
:103CE000910D11240895B0E0A0E0E9E7FEE10C9405
:103CF00059215C017B016115710519F0DB018D9380
:103D00009C9385010F5F1F4FF501D0818D2F90E0AF
:103D10000E94C31F6C01892BB9F5DD32B9F50F5F25
:103D20001F4FD5011196DC91C1E05801F1E0AF1AA7
:103D3000B10843E050E060E770E0C5010E94CC1F8D
:103D4000892B69F5680182E0C80ED11C45E050E07E
:103D50006BE670E0C6010E94CC1F892B21F468013C
:103D600097E0C90ED11CE114F10419F0D701CD92EE
:103D7000DC9260E070E080E89FEFC111FFC060E07E
:103D800070E080E89FE7FAC05801BBCFDB3229F42E
:103D900085010E5F1F4FF501D181C0E0C6CF43E022
:103DA00050E068E670E0C5010E94CC1F892BE9F065
:103DB000F80110E000E020E030E0A9015F01B0ED83
:103DC0008B2E8D0E89E08815C8F19C2E689491F891
:103DD0008C2F8870C2FF16C0811102C00F5F1F4F69
:103DE0003196D501DC91C92DE9CFE114F10429F018
:103DF0000E5F1F4FF7011183008360E070E080ECDD
:103E00009FE7BCC0882311F001501109A5E0B0E084
:103E10000E9440219B01AC01220F331F441F551FFC
:103E2000280D311D411D511D283999E939074907D0
:103E300099E15907A8F2C6609C2ED2CFAEEF8A1244
:103E400006C0C3FD3CC09C2E689493F8C9CFDF7DAB
:103E5000D534A9F580818D3239F4C061DF01129625
:103E6000818162E070E006C0DF018B32C1F3119600
:103E700061E070E080535D01A61AB70A8A30F8F459
:103E8000E0E8CE16ECE0DE065CF4B601660F771FC4
:103E9000660F771FC60ED71ECC0CDD1CC80ED11CBA
:103EA0005D01FFEFAF1ABF0A8C9180538A30A8F1F1
:103EB000C4FF03C0D194C194D1080C0D1D1DC1FFD6
:103EC00009C0E114F10431F081E0A81AB108D7016A
:103ED000AD92BC92CA01B9010E94E91FC370C33000
:103EE00009F490584B015C0120E030E0A9010E94E8
:103EF000E41F882309F440C0CFE9D0E017FF05C0D4
:103F0000119501951109C7E8D0E06E01B8E1CB1A0F
:103F1000D10880E2E82EF12C0FC0D501B1CFFE010F
:103F200025913591459154910E191F09C501B40190
:103F30000E944A204B015C01D501C4010E151F05EA
:103F400074F72497F594E794CC16DD06A9F78A2F29
:103F5000880F8B2F881F8F3F49F020E030E0A901A8
:103F6000C501B4010E94E41F811106C082E290E005
:103F70009093B2048093B104C501B401CDB7DEB70C
:103F8000ECE00C94752191110C94B720803219F05B
:103F900089508550C8F70895FB01DC01415050401D
:103FA00088F08D9181341CF08B350CF4805E659126
:103FB00061341CF06B350CF4605E861B611171F38B
:103FC000990B0895881BFCCF0E94262008F481E0FD
:103FD0000895E89409C097FB3EF4909580957095FC
:103FE00061957F4F8F4F9F4F9923A9F0F92F96E945
:103FF000BB279395F695879577956795B795F111BA
:10400000F8CFFAF4BB0F11F460FF1BC06F5F7F4F56
:104010008F4F9F4F16C0882311F096E911C0772368
:1040200021F09EE8872F762F05C0662371F096E871
:10403000862F70E060E02AF09A95660F771F881F40
:10404000DAF7880F9695879597F90895990F0008E4
:10405000550FAA0BE0E8FEEF16161706E807F9075A
:10406000C0F012161306E407F50798F0621B730BF5
:10407000840B950B39F40A2661F0232B242B252B76
:1040800021F408950A2609F4A140A6958FEF811D19
:10409000811D08950E945D200C94D1200E94C320B0
:1040A00038F00E94CA2020F0952311F00C94BA2019
:1040B0000C94C02011240C9405210E94E22070F37E
:1040C000959FC1F3950F50E0551F629FF001729FBD
:1040D000BB27F00DB11D639FAA27F00DB11DAA1FCC
:1040E000649F6627B00DA11D661F829F2227B00D19
:1040F000A11D621F739FB00DA11D621F839FA00DA4
:10410000611D221F749F3327A00D611D231F849FF3
:10411000600D211D822F762F6A2F11249F5750404A
:104120009AF0F1F088234AF0EE0FFF1FBB1F661FC5
:10413000771F881F91505040A9F79E3F510580F08E
:104140000C94BA200C9405215F3FE4F3983ED4F31D
:10415000869577956795B795F795E7959F5FC1F732
:10416000FE2B880F911D9695879597F908959927AD
:104170008827089597F99F6780E870E060E00895C8
:104180009FEF80EC089500240A941616170618066F
:104190000906089500240A9412161306140605064B
:1041A0000895092E0394000C11F4882352F0BB0FDC
:1041B00040F4BF2B11F460FF04C06F5F7F4F8F4F3F
:1041C0009F4F089557FD9058440F551F59F05F3F7A
:1041D00071F04795880F97FB991F61F09F3F79F029
:1041E00087950895121613061406551FF2CF4695AB
:1041F000F1DF08C0161617061806991FF1CF86952D
:104200007105610508940895E894BB276627772710
:10421000CB0197F90895F999FECF92BD81BDF89A27
:10422000992780B50895262FF999FECF1FBA92BD20
:1042300081BD20BD0FB6F894FA9AF99A0FBE019687
:104240000895052E97FB1EF400940E94382157FD17
:1042500007D00E948A2107FC03D04EF40C94382129
:1042600050954095309521953F4F4F4F5F4F0895A2
:1042700090958095709561957F4F8F4F9F4F0895D2
:104280000E94AC21A59F900DB49F900DA49F800D1E
:10429000911D11240895B7FF0C9440210E944021E4
:1042A000821B930B08952F923F924F925F926F92D1
:1042B0007F928F929F92AF92BF92CF92DF92EF92B6
:1042C000FF920F931F93CF93DF93CDB7DEB7CA1B37
:1042D000DB0B0FB6F894DEBF0FBECDBF09942A8862
:1042E000398848885F846E847D848C849B84AA840A
:1042F000B984C884DF80EE80FD800C811B81AA8197
:10430000B981CE0FD11D0FB6F894DEBF0FBECDBF61
:10431000ED010895A1E21A2EAA1BBB1BFD010DC0E1
:10432000AA1FBB1FEE1FFF1FA217B307E407F50765
:1043300020F0A21BB30BE40BF50B661F771F881F41
:10434000991F1A9469F760957095809590959B01D7
:10435000AC01BD01CF010895A29FB001B39FC00180
:10436000A39F700D811D1124911DB29F700D811DA1
:104370001124911D08955058BB27AA270E94D321CC
:104380000C94D1200E94C32038F00E94CA2020F053
:1043900039F49F3F19F426F40C94C0200EF4E095F4
:1043A000E7FB0C94BA20E92F0E94E22058F3BA17D9
:1043B000620773078407950720F079F4A6F50C943B
:1043C00004210EF4E0950B2EBA2FA02D0B01B9019C
:1043D00090010C01CA01A0011124FF27591B99F07B
:1043E000593F50F4503E68F11A16F040A22F232F87
:1043F000342F4427585FF3CF469537952795A795D7
:10440000F0405395C9F77EF41F16BA0B620B730B7D
:10441000840BBAF09150A1F0FF0FBB1F661F771FEE
:10442000881FC2F70EC0BA0F621F731F841F48F4A3
:10443000879577956795B795F7959E3F08F0B0CF2C
:104440009395880F08F09927EE0F97958795089513
:104450000E943C220C94D1200E94CA2058F00E9455
:10446000C32040F029F45F3F29F00C94BA20511189
:104470000C9405210C94C0200E94E22068F399233B
:10448000B1F3552391F3951B550BBB27AA27621750
:104490007307840738F09F5F5F4F220F331F441F5D
:1044A000AA1FA9F335D00E2E3AF0E0E832D0915091
:1044B0005040E695001CCAF72BD0FE2F29D0660F7E
:1044C000771F881FBB1F261737074807AB07B0E8C1
:1044D00009F0BB0B802DBF01FF2793585F4F3AF0C7
:1044E0009E3F510578F00C94BA200C9405215F3F53
:1044F000E4F3983ED4F3869577956795B795F7954D
:104500009F5FC9F7880F911D9695879597F9089534
:10451000E1E0660F771F881FBB1F621773078407D0
:10452000BA0720F0621B730B840BBA0BEE1F88F7DF
:10453000E09508950E94A1226894B1110C94052180
:1045400008950E94EA2088F09F5798F0B92F992784
:10455000B751B0F0E1F0660F771F881F991F1AF06E
:10456000BA95C9F714C0B13091F00E940421B1E0AE
:1045700008950C940421672F782F8827B85F39F0AD
:10458000B93FCCF3869577956795B395D9F73EF407
:1045900090958095709561957F4F8F4F9F4F0895AF
:1045A0000E94262008F48FEF0895DB018F939F93DC
:1045B0000E944021BF91AF91A29F800D911DA39FAA
:1045C000900DB29F900D11240895AA1BBB1B51E1C1
:1045D00007C0AA1FBB1FA617B70710F0A61BB70B73
:1045E000881F991F5A95A9F780959095BC01CD0118
:1045F000089597FB072E16F4009407D077FD09D095
:104600000E94E52207FC05D03EF4909581959F4FCE
:104610000895709561957F4F0895EE0FFF1F0590E7
:10462000F491E02D09940E94AC21B7FF0895821BFC
:10463000930B08950F931F93CF93DF9382309105CF
:1046400010F482E090E0E091B504F091B60430E01F
:1046500020E0B0E0A0E0309799F42115310509F48D
:104660004AC0281B390B24303105D8F58A819B813B
:104670006115710589F1FB0193838283FE0111C0ED
:10468000408151810281138148175907E0F0481792
:10469000590799F4109761F012960C93129713969C
:1046A0001C933296CF01DF91CF911F910F91089506
:1046B0000093B5041093B604F4CF2115310551F0E1
:1046C0004217530738F0A901DB019A01BD01DF0150
:1046D000F801C1CFEF01F9CF9093B6048093B504F0
:1046E000CDCFFE01E20FF31F819391932250310948
:1046F00039832883D7CF2091B3043091B404232B7E
:1047000041F420911801309119013093B4042093A1
:10471000B30420911601309117012115310541F4A0
:104720002DB73EB740911A0150911B01241B350B48
:10473000E091B304F091B404E217F307A0F42E1B48
:104740003F0B2817390778F0AC014E5F5F4F2417F5
:10475000350748F04E0F5F1F5093B4044093B304E5
:10476000819391939FCFF0E0E0E09CCFCF93DF93D4
:104770000097E9F0FC01329713821282A091B504F0
:10478000B091B604ED0130E020E01097A1F4208153
:104790003181820F931F2091B3043091B404281704
:1047A000390709F061C0F093B404E093B304DF91DA
:1047B000CF910895EA01CE17DF07E8F54A815B81C2
:1047C0009E0141155105B1F7E901FB83EA83499147
:1047D0005991C40FD51FEC17FD0761F480819181B9
:1047E0000296840F951FE9019983888382819381C2
:1047F0009B838A83F0E0E0E012968D919C91139761
:104800000097B9F52D913C911197CD010296820F39
:10481000931F2091B3043091B4042817390739F657
:10482000309751F51092B6041092B504B093B404C9
:10483000A093B304BCCFD383C28340815181840F42
:10484000951FC817D90761F44E5F5F4F8881998122
:10485000480F591F518340838A819B8193838283B0
:104860002115310509F0B0CFF093B604E093B504FB
:104870009ECFFD01DC01C0CF13821282D7CFFB0196
:10488000DC0101900D920020E1F70895AEE0B0E068
:10489000ECE4F4E20C9461210D891E8986E08C839E
:1048A0001A8309838FEF9FE79E838D83AE01475E56
:1048B0005F4F6F89788DCE0101960E9469242F8108
:1048C0003885020F131FF80110822E96E4E00C9435
:1048D0007D21ABE0B0E0EFE6F4E20C9453217C01E3
:1048E0003B018A01FC0117821682838181FFC8C1C6
:1048F000CE0101965C01F7019381F30193FD85914F
:1049000093FF81913F01882309F453C1853239F423
:1049100093FD859193FF81913F01853229F4B70181
:1049200090E00E945926E7CF912C212C312CFFE1F9
:10493000F31538F08B3211F190F4803209F18332A3
:1049400029F137FC3CC020ED280F2A3050F536FE07
:1049500020C08AE0989E200D1124922E06C08D3230
:1049600091F0803371F7689430F8F30193FD8591ED
:1049700093FF81913F018111DACF21C0689431F812
:10498000689432F8F2CF689433F8EFCF689434F833
:10499000ECCFEAE02E9E200D1124222E689435F8EB
:1049A000E4CF8E3229F436FC04C1689436F8DDCFAA
:1049B0008C3619F4689437F8D8CF8836B1F2982F2E
:1049C0009F7D95549330E0F08336A1F18337C1F198
:1049D000833509F063C02801F2E04F0E511CF80145
:1049E000C080D180692D70E036FC02C06FEF7FEF90
:1049F000C6010E9443264C01689437F882010AC020
:104A00000C5F1F4FFFE3F98388248394912C650189
:104A1000E89437F833FE2DC0522C8114910471F5BF
:104A2000552009F468CFB70180E290E00E94592632
:104A30005A94F6CFF801808189830E5F1F4FE4CF2F
:104A40002801F2E04F0E511CF801C080D180692D81
:104A500070E036FC02C06FEF7FEFC6010E944E2669
:104A60004C018201D5CFB70180E290E00E94592627
:104A70002A942814190409F0B0F7CECFF60137FCB8
:104A8000859137FE81916F01B70190E00E94592610
:104A900051105A94F1E08F1A9108BFCF843619F063
:104AA000893609F077C0F80137FE6BC060817181EB
:104AB000828193810C5F1F4FF32DFF763F2E97FF6E
:104AC00009C090958095709561957F4F8F4F9F4F4E
:104AD000689437F82AE030E0A5010E948926C82EA4
:104AE000CA188C2C432C36FE0CC0E89440F8C9142C
:104AF00040F434FE05C032FC03C0F32DFE7E4F2E81
:104B0000892C44FE95C0FE01EC0DF11D808180339F
:104B100009F087C0242D297E422E842D8870582EBE
:104B200043FC95C040FE8FC09C2C821418F42C0CC2
:104B3000922C981844FE91C0B70180E390E00E9447
:104B4000592642FE09C088E790E041FE02C088E590
:104B500090E0B7010E945926C91408F48AC0CA948B
:104B6000D12C9FEFC91AD90ACA0CDB1CF60182911D
:104B70006F01B70190E00E945926AC14BD04B1F753
:104B80004FCF60817181072E000C880B990B0E5F4F
:104B90001F4F92CFD32CE894D4F82AE030E0853729
:104BA00039F1232D297FD22E8F3601F148F4883533
:104BB000A9F0F701868197812B96E2E10C946F2191
:104BC000803749F08837A9F7D4FE02C06894D2F83C
:104BD00020E130E00DC06894D4F8F6CF34FE03C075
:104BE000822F8660D82E20E132E002C028E030E03B
:104BF000F801D7FE0FC060817181828193810C5FC3
:104C00001F4FA5010E948926C82ECA183D2CE89482
:104C100037F867CF6081718190E080E00E5F1F4FB1
:104C2000F0CF42FC02C0839478CF8394839475CFF5
:104C3000842D867809F471CFF6CFB70180E290E039
:104C40000E94592683948214C0F3512C73CF522CA6
:104C50005818821408F46ECFF8CF842D867809F4A2
:104C60007BCF8BE241FE80E247FC8DE2B70190E012
:104C700071CFB70180E390E00E9459269A946CCFDF
:104C80008FEF9FEF99CFFC010590615070400110AC
:104C9000D8F7809590958E0F9F1F0895FC01615065
:104CA000704001900110D8F7809590958E0F9F1F4E
:104CB00008950F931F93CF93DF93182F092FEB01C4
:104CC0008B8181FD09C01FEF0FEF812F902FDF91A6
:104CD000CF911F910F91089582FF14C02E813F81C3
:104CE0008C819D81281739073CF4E881F981CF0137
:104CF00001969983888310838E819F8101969F837B
:104D00008E83E3CFE885F985812F0995892BA1F35F
:104D1000DACFFA01AA27283051F1203181F1E89445
:104D20006F936E7F6E5F7F4F8F4F9F4FAF4FB1E09E
:104D30003ED0B4E03CD0670F781F891F9A1FA11D99
:104D4000680F791F8A1F911DA11D6A0F711D811D9A
:104D5000911DA11D20D009F468943F912AE0269F5F
:104D600011243019305D3193DEF6CF010895462FBE
:104D70004770405D4193B3E00FD0C9F7F6CF462F9F
:104D80004F70405D4A3318F0495D31FD4052419308
:104D900002D0A9F7EACFB4E0A695979587957795C5
:104DA0006795BA95C9F700976105710508959B014C
:104DB000AC010A2E06945795479537952795BA95D5
:104DC000C9F7620F731F841F951FA01D089510E07F
:104DD000C0E8D0E004C0FE010E940D232196C13836
:104DE000D107C9F7F894FFCF01000155004D0042EB
:104DF0000049004F00FF010000000100000000001A
:104E0000B7048000302E392E390041345030004D27
:104E10000A4D0A00004D0A00002D084D0A0000400E
:104E20000C00000000E302430270023003A1027F85
:104E30000293025225642563002125642C004E4F05
:104E40004B0044454641554C542D3E454550524F2C
:104E50004D2D76290025733A25642563004572722D
:104E60006F722072656164696E6720736572696133
:104E70006C20636F6D6D616E643A5B25645D002329
:104E800025630042004100450047004D00240025F5
:104E90007325732563003F00250051544B00257393
:104EA0003A25642C25642C25642C25642C25642C3F
:104EB00025642C25642E253033642C25642E253062
:104EC00033642C25642563005152500025733A2524
:104ED000642C25642C25642C25642C256425630012
:104EE0005142540025733A25642C25642C25642CEA
:104EF00025642563005152430025733A25642C250F
:104F0000642C25642C25642C25642C25642C2564B4
:104F10002C256425630025632573256300256325FF
:104F2000642563007225642563007325632563008F
:104F3000772564256300702564257325642C25641A
:104F40002C256425630053774572722D30310000A3
:107800000C94343C0C94513C0C94513C0C94513CE1
:107810000C94513C0C94513C0C94513C0C94513CB4
:107820000C94513C0C94513C0C94513C0C94513CA4
:107830000C94513C0C94513C0C94513C0C94513C94
:107840000C94513C0C94513C0C94513C0C94513C84
:107850000C94513C0C94513C0C94513C0C94513C74
:107860000C94513C0C94513C11241FBECFEFD8E036
:10787000DEBFCDBF11E0A0E0B1E0ECE9FFE702C060
:1078800005900D92A230B107D9F712E0A2E0B1E065
:1078900001C01D92AD30B107E1F70E942D3D0C945F
:1078A000CC3F0C94003C982F959595959595959582
:1078B000905D8F708A307CF0282F295A8091C0000B
:1078C00085FFFCCF9093C6008091C00085FFFCCF60
:1078D0002093C6000895282F205DF0CF982F809127
:1078E000C00085FFFCCF9093C6000895EF92FF92F1
:1078F0000F931F93EE24FF2487018091C00087FD22
:1079000017C00894E11CF11C011D111D81E4E8164B
:1079100082E4F8068FE0080780E0180770F3E09132
:107920000401F091050109958091C00087FFE9CF1E
:107930008091C6001F910F91FF90EF9008950E94D3
:10794000763C982F8091C00085FFFCCF9093C600B5
:1079500091362CF490330CF09053892F089597555D
:10796000892F08951F930E949F3C182F0E949F3CCF
:107970001295107F810F1F9108951F93182F882350
:1079800021F00E94763C1150E1F71F9108951F935A
:10799000182F0E94763C803249F0809103018F5F5E
:1079A000809303018530C1F01F9108958091C0003C
:1079B00085FFFCCF84E18093C6008091C00085FFE5
:1079C000FCCF1093C6008091C00085FFFCCF80E102
:1079D0008093C6001F910895E0910401F091050184
:1079E00009951F9108950E94763C803241F0809164
:1079F00003018F5F80930301853081F008958091AA
:107A0000C00085FFFCCF84E18093C6008091C00058
:107A100085FFFCCF80E18093C6000895E0910401CA
:107A2000F09105010995089540E951E08823A1F0FE
:107A30002D9A28EE33E0FA013197F1F721503040CA
:107A4000D1F72D9828EE33E0FA013197F1F7215064
:107A50003040D1F7815061F708953F924F925F9285
:107A60006F927F928F929F92AF92BF92CF92DF924E
:107A7000EF92FF920F931F93CF93DF93000080E16B
:107A80008093C4001092C50088E18093C10086E015
:107A90008093C2005098589A259A81E00E94143D24
:107AA00024E1F22E9EE1E92E85E9D82E0FE0C02ECA
:107AB00010E1B12EAA24A394B1E49B2EA6E58A2E50
:107AC000F2E57F2EE0E26E2E79E4572E63E5462E36
:107AD00050E5352E0E94763C8033B1F18133B9F107
:107AE000803409F46FC0813409F476C0823409F41B
:107AF00085C0853409F488C0803531F1823521F1A3
:107B0000813511F1853509F485C0863509F48DC0BC
:107B1000843609F496C0843709F403C1853709F423
:107B200072C1863709F466C0809103018F5F80932C
:107B30000301853079F6E0910401F0910501099582
:107B40000E94763C803351F60E94F33CC3CF0E94E2
:107B5000763C803249F78091C00085FFFCCFF092DF
:107B6000C6008091C00085FFFCCF9092C600809136
:107B7000C00085FFFCCF8092C6008091C00085FFC9
:107B8000FCCF7092C6008091C00085FFFCCF609250
:107B9000C6008091C00085FFFCCF5092C600809146
:107BA000C00085FFFCCF4092C6008091C00085FFD9
:107BB000FCCF3092C6008091C00085FFFCCFB09210
:107BC000C60088CF0E94763C863808F4BDCF0E945C
:107BD000763C0E94F33C7ECF0E94763C803809F4CC
:107BE0009CC0813809F40BC1823809F43CC1883942
:107BF00009F48FC080E00E94C73C6CCF84E10E94F2
:107C0000BD3C0E94F33C66CF85E00E94BD3C0E94D3
:107C1000F33C60CF0E94763C809306010E94763C44
:107C2000809307010E94F33C55CF0E94763C80333D
:107C300009F41DC183E00E94BD3C80E00E94C73C66
:107C400049CF0E94763C809309020E94763C809343
:107C5000080280910C028E7F80930C020E94763C79
:107C6000853409F415C18091080290910902892B8D
:107C700089F000E010E00E94763CF801E85FFE4FDA
:107C800080830F5F1F4F80910802909109020817AF
:107C9000190788F30E94763C803209F045CF809125
:107CA0000C0280FF01C16091060170910701660F0F
:107CB000771F7093070160930601A0910802B091AD
:107CC00009021097C9F0E8E0F1E09B01AD014E0F09
:107CD0005F1FF999FECF32BD21BD819180BDFA9A17
:107CE000F99A2F5F3F4FE417F50799F76A0F7B1F4B
:107CF00070930701609306018091C00085FFFCCF5F
:107D0000F092C6008091C00085FFFCCFB092C60003
:107D1000E1CE83E00E94C73CDDCE82E00E94C73CFA
:107D2000D9CE0E94763C809309020E94763C8093D3
:107D300008028091060190910701880F991F909386
:107D40000701809306010E94763C853409F4A6C0A1
:107D500080910C028E7F80930C020E94763C8032D0
:107D600009F0B8CE8091C00085FFFCCFF092C6002C
:107D7000609108027091090261157105B9F140E046
:107D800050E080910C02A82FA170B82FB27011C0E2
:107D9000BB2309F45CC0E0910601F0910701319624
:107DA000F0930701E09306014F5F5F4F46175707B7
:107DB000E8F4AA2369F3F999FECF209106013091E6
:107DC000070132BD21BDF89A90B58091C00085FFB2
:107DD000FCCF9093C6002F5F3F4F30930701209355
:107DE00006014F5F5F4F4617570718F38091C00099
:107DF00085FDE5CE8091C00085FFF8CFE0CE81E023
:107E00000E94C73C67CE0E94763C803209F08CCE3F
:107E10008091C00085FFFCCFF092C6008091C00029
:107E200085FFFCCFE092C6008091C00085FFFCCFAB
:107E3000D092C6008091C00085FFFCCFC092C600E2
:107E40008091C00085FFFCCFB092C60043CEE09188
:107E50000601F091070194918091C00085FFFCCF4D
:107E60009093C6009CCF80E10E94C73C33CE0E9415
:107E7000763C0E94763C182F0E94763C112309F430
:107E800083C0113009F484C08FE00E94C73C22CE29
:107E900080910C02816080930C02E5CE80910C02EF
:107EA000816080930C0259CF809107018823880F4D
:107EB000880B8A2180930B02809106019091070123
:107EC000880F991F90930701809306018091080203
:107ED00080FF09C080910802909109020196909359
:107EE000090280930802F894F999FECF1127E091D6
:107EF0000601F0910701C8E0D1E08091080290915D
:107F00000902103091F40091570001700130D9F34B
:107F100003E000935700E89500915700017001308D
:107F2000D9F301E100935700E89509901990009169
:107F3000570001700130D9F301E000935700E89534
:107F40001395103498F011270091570001700130FB
:107F5000D9F305E000935700E895009157000170B0
:107F60000130D9F301E100935700E895329602976A
:107F700009F0C7CF103011F00296E5CF112480919F
:107F8000C00085FFB9CEBCCE8EE10E94C73CA2CD19
:0E7F900085E90E94C73C9ECDF894FFCF80008B
:00000001FF
