:020000040000FA
:100000000C9464000C948C000C948C000C948C0068
:100010000C948C000C948C000C948C000C94DA07DB
:100020000C948C000C948C000C948C000C948C0020
:100030000C948C000C948C000C948C000C948C0010
:100040000C948E080C948C000C945C080C9436086C
:100050000C948C000C948C000C948C000C948C00F0
:100060000C948C000C948C000000000024002700ED
:100070002A000000000023002600290002000000E2
:100080000800020100000304070000000000000057
:100090000001020408102040800102040810200121
:1000A000020408102000000000250028002B000496
:1000B000040404040404040202020202020303030F
:1000C00003030300D8089E1011241FBECFEFD8E011
:1000D000DEBFCDBF11E0A0E0B1E0E8E2FEE202C089
:1000E00005900D92A439B107D9F724E0A4E9B1E055
:1000F00001C01D92A231B207E1F710E0C3E6D0E0E3
:1001000004C02197FE010E940413C236D107C9F72B
:100110000E9480090C9407170C9400004F925F9284
:100120006F927F928F929F92AF92BF92FF92209197
:10013000FA033091FB038217930708F043C02B01A9
:1001400066247724852E962EA72EBB24B82DA42FA7
:1001500020910004F42C222391F0E22FF0E0E49DA2
:10016000D001E59DB00DF49DB00D1124FB2E289D0E
:1001700040011124B92D249F90011124A32FE09157
:100180000604209101043091020450910304E51308
:1001900023C0FC01EE0FFF1F8E0F9F1F820F931FC6
:1001A000E0910304E80FF92FF11DF082E0910404BF
:1001B000E80FF92FF11DB08320910504820F911DE6
:1001C000FC01A083FF90BF90AF909F908F907F9095
:1001D0006F905F904F900895880F991F880F991F17
:1001E000820F931FE80FF92FF11D1082D9CFEAE09B
:1001F000F3E050E040E081914F5F5F4F8A3019F0AB
:1002000040345105C1F76AE073E08BE593E00C944C
:100210000901AF92BF92CF92DF92EF92FF920F93BC
:100220001F93CF93DF936C017B018B01040F151F8C
:10023000EB015E01AE18BF08C017D10759F06991F4
:10024000D601ED91FC910190F081E02DC601099558
:10025000892B79F7C501DF91CF911F910F91FF9005
:10026000EF90DF90CF90BF90AF900895FC01538D39
:10027000448D252F30E0842F90E0821B930B541780
:1002800010F0CF96089501970895FC01918D828D0D
:10029000981761F0A28DAE0FBF2FB11D5D968C91A6
:1002A000928D9F5F9F73928F90E008958FEF9FEFE5
:1002B0000895FC01918D828D981731F0828DE80FA1
:1002C000F11D858D90E008958FEF9FEF0895FC015B
:1002D000918D228D892F90E0805C9F4F821B910928
:1002E0008F73992708958BE593E00E94670121E0C1
:1002F000892B09F420E0822F089580E090E0892B7B
:1003000029F00E94730181110C9400000895FC01F2
:10031000A48DA80FB92FB11DA35ABF4F2C91848D66
:1003200090E001968F739927848FA689B7892C93C3
:10033000A089B1898C91837080648C93938D848D16
:10034000981306C00288F389E02D80818F7D808319
:100350000895EF92FF920F931F93CF93DF93EC01D9
:1003600081E0888F9B8D8C8D98131AC0E889F9895C
:10037000808185FF15C09FB7F894EE89FF8960835F
:10038000E889F98980818370806480839FBF81E0E0
:1003900090E0DF91CF911F910F91FF90EF90089522
:1003A000F62E0B8D10E00F5F1F4F0F731127E02EFD
:1003B0008C8D8E110CC00FB607FCFACFE889F98935
:1003C000808185FFF5CFCE010E948701F1CFEB8DB3
:1003D000EC0FFD2FF11DE35AFF4FF0829FB7F89409
:1003E0000B8FEA89FB8980818062CFCFCF93DF9327
:1003F000EC01888D8823B9F0AA89BB89E889F9893D
:100400008C9185FD03C0808186FD0DC00FB607FC71
:10041000F7CF8C9185FFF2CF808185FFEDCFCE01A4
:100420000E948701E9CFDF91CF910895833081F059
:1004300028F4813099F08230A9F008958730A9F02E
:100440008830C9F08430B1F4809180008F7D03C082
:10045000809180008F7780938000089584B58F7796
:1004600084BD089584B58F7DFBCF8091B0008F77D8
:100470008093B00008958091B0008F7DF9CFCF9325
:10048000DF93282F30E0F901E358FF4F8491F90101
:10049000EF56FF4FD491F901E155FF4FC491CC23A2
:1004A00091F081110E941602EC2FF0E0EE0FFF1F79
:1004B000EB55FF4FA591B4918FB7F894EC91D0957F
:1004C000DE23DC938FBFDF91CF91089590910001DF
:1004D00089130BC0ECE7F0E0E4919FEF90930001EB
:1004E000E13041F020F0E23059F00C943F021092DC
:1004F0006E00FBCF90916F009D7F90936F00F5CFC2
:10050000909170009D7F9093700091E09093B00067
:100510009091B100987F94609093B1001092B300D5
:10052000E4CFCF93DF93282F30E0F901E358FF4F5A
:100530008491F901EF56FF4FD491F901E155FF4F36
:10054000C491CC23A1F081110E941602EC2FF0E09F
:10055000EE0FFF1FEE58FF4FA591B491EC91ED23E4
:1005600081E090E009F480E0DF91CF91089580E090
:1005700090E0FACFCF93DF9390E0FC01EF56FF4F6E
:10058000249181559F4FFC0184918823C9F090E00C
:10059000880F991FFC01E859FF4FA591B491FC0108
:1005A000EB55FF4FC591D49161110DC09FB7F894E1
:1005B0008C91209582238C938881282328839FBF48
:1005C000DF91CF910895623051F49FB7F8943C9138
:1005D000822F809583238C93E8812E2BEFCF8FB7CA
:1005E000F894EC912E2B2C938FBFEACF4F925F9211
:1005F0006F927F928F929F92AF92BF92CF92DF9233
:10060000EF92FF920F931F93CF93DF9300D000D010
:100610001F92CDB7DEB78C012A013B01809100010A
:100620008330C9F08F3F09F47FC00F900F900F9077
:100630000F900F90DF91CF911F910F91FF90EF904E
:10064000DF90CF90BF90AF909F908F907F906F90F2
:100650005F904F900895ECE7F0E084918D8387FDE3
:10066000E4CF61E083E00E94BA028D81882321F00B
:100670009D81923009F05CC14801B12CA12C60E051
:1006800072E18AE790E0A50198010E94AE102983EB
:100690003A834B835C8369017A0181E0C81AD108EF
:1006A000E108F1089FEFC916D104E104F10409F053
:1006B0000CF413C160E472E48FE090E0A5019801AE
:1006C0000E94AE1069017A0181E0C81AD108E108E0
:1006D000F1089D81923009F098C08FEFC816D104BF
:1006E000E104F10409F00CF4DDC160E970ED83E090
:1006F00090E0A50198010E94AE1069017A0191E095
:10070000C91AD108E108F1088FEFC816D104E10435
:10071000F10411F00CF0A3C183E09091B100987F37
:10072000892B8093B100E1C083E080930001ECE766
:10073000F0E094919D839F3F09F477CF913029F1A8
:1007400058F0923009F43FC08D8187FD6ECF61E093
:1007500083E00E94BA028CCF14BC15BC84B58260C1
:1007600084BD85B5816085BDE2EBF0E0E491F0E009
:10077000EE0FFF1FEB55FF4F85919491E4E9F0E0F8
:10078000E491E0934E031D826CCF10928000109292
:100790008100809181008860809381008091810038
:1007A000816080938100E2EBF0E0E491F0E0EE0FF5
:1007B000FF1FEB55FF4F85919491E4E9F0E0E49140
:1007C000E0934D034ECF1092B0001092B100809193
:1007D000B00082608093B0008091B100816080930E
:1007E000B100E2EBF0E0E491F0E0EE0FFF1FEB551B
:1007F000FF4F8591949190934C0380934B03E4E9D0
:10080000F0E0E491E0934A032CCF9FEFC916D104A6
:10081000E104F10409F00CF489C068E478EE81E0A9
:1008200090E0A50198010E94AE1069017A0181E073
:10083000C81AD108E108F1089D81992309F428C15B
:100840009FEFC916D104E104F10409F00CF41EC1B4
:1008500062E17AE780E090E0A50194010E94AE1089
:1008600069017A0181E0C81AD108E108F1089D8187
:10087000992309F4EBC08FEFC816D104E104F10409
:1008800011F008F0BFC086E048CF64E274EF80E06A
:1008900090E0A50194010E94AE1069017A0181E007
:1008A000C81AD108E108F10885E09FEFC916D10404
:1008B000E104F10409F008F430CF62E17AE780E066
:1008C00090E0A50194010E94AE1069017A0191E0C7
:1008D000C91AD108E108F108CECF81E09D819111BC
:1008E0001CCF95B5987F892B85BD2FEF3FEFA901D0
:1008F000411451046104710409F043C09D81913099
:1009000009F45EC0923009F46DC091118ECEC7BC5F
:1009100020935703309358034093590350935A033D
:1009200080916E00826080936E007FCE82E0D6CF91
:10093000B12CA12C60E072E18AE790E0A50198015A
:100940000E94AE1069017A0181E0C81AD108E1085D
:10095000F108C114D10491E0E906F10404F591E035
:100960008D81813011F680918100887F892B809361
:1009700081002FEF3FEFA90141145104610471047C
:10098000F9F0D801AA0FBB1FA30192010E94CD105C
:1009900028EE33E040E050E00E94D810AFCF68E48A
:1009A00078EE81E090E0A50198010E94AE10690107
:1009B0007A0181E0C81AD108E108F10893E0D0CFAC
:1009C000D0928900C092880020935303309354033F
:1009D000409355035093560380916F00826080933B
:1009E0006F0023CEC092B30020934F033093500387
:1009F0004093510350935203809170008260809322
:100A0000700013CEC980DA80EB80FC809AE0F59408
:100A1000E794D794C7949A95D1F791E0C91AD10871
:100A2000E108F10887E079CEC980DA80EB80FC80AC
:100A30008AE0F594E794D794C7948A95D1F791E02A
:100A4000C91AD108E108F10885E04BCF8FEFC8162D
:100A5000D104E104F10409F038F784E042CF68E4FE
:100A600078EE81E090E0A50198010E94AE10690146
:100A70007A0191E0C91AD108E108F1088FEFC81690
:100A8000D104E104F10411F00CF0FFCE84E045CE76
:100A90008FEFC816D104E104F10411F00CF0D8CEA8
:100AA00083E01FCF82E039CE3FB7F8948091950163
:100AB00090919601A0919701B091980126B5A89BBD
:100AC00005C02F3F19F00196A11DB11D3FBFBA2FE0
:100AD000A92F982F8827BC01CD01620F711D811DA0
:100AE000911D42E0660F771F881F991F4A95D1F725
:100AF0000895CF92DF92EF92FF920F931F93CF93BF
:100B0000DF93CDB7DEB729970FB6F894DEBF0FBEDF
:100B1000CDBF8091010490910204892B09F480C01B
:100B2000C0900704D0900804E0900904F0900A04F3
:100B30000E9454056C157D058E059F0550F40E949A
:100B400054056093070470930804809309049093FC
:100B50000A040E9454050091070410910804209192
:100B6000090430910A04601B710B820B930B6C32E9
:100B7000714081059105A0F2F8948091FC03909159
:100B8000FD039A838983E0910104F0910204DF015F
:100B90001196808189879091F803E0910B04F09180
:100BA0000C0480910D04992309F449C09081982B7D
:100BB00098879081809589238F838F818C8388E0AB
:100BC0008B8358856F8149853B812C8189819A81EE
:100BD000508347FD252F3A952083262F39F0441F57
:100BE00000C000006083000000C0F2CF38E04D91EB
:100BF00060830000019761F7F0930C04E0930B040D
:100C000049873B832C839A83898378940E94540577
:100C100060930704709308048093090490930A0476
:100C200029960FB6F894DEBF0FBECDBFDF91CF91EE
:100C30001F910F91FF90EF90DF90CF9008959081DA
:100C4000982B98879081809589238F838F818E83BD
:100C500088E08D8358856F8149853D812E8189810A
:100C60009A81508347FD252F00C000C0208300C01B
:100C700000C000C000C000C060830000262F3A956D
:100C800041F0441F000000C000C000C000C000C010
:100C9000E8CF38E04D9100C0608300C0019709F7AC
:100CA000F0930C04E0930B0449873D832E83ABCF74
:100CB0008F929F92AF92BF92CF92DF92EF92FF926C
:100CC0006B017C010E9454054B015C01C114D104ED
:100CD000E104F104B9F00E945405681979098A0900
:100CE0009B09683E73408105910580F321E0C21A9B
:100CF000D108E108F10888EE880E83E0981EA11C57
:100D0000B11CE4CFFF90EF90DF90CF90BF90AF90F9
:100D10009F908F9008950F931F93CF93DF93D0E010
:100D2000C0E00CE211E08091C3018C171D06C4F0F5
:100D30006091CA017091CB018091CC019091CD015D
:100D40000E948211CB01B8010E94D51240E05FEFF2
:100D500060E070E08C0F9D1F0E948E002196E3CF13
:100D6000DF91CF911F910F9108950F931F93CF9310
:100D7000DF93D0E0C0E00CE211E08091C4018C1759
:100D80001D06C4F06091FF02709100038091010381
:100D9000909102030E948211CB01B8010E94D512EA
:100DA00040E050E06FEF70E08C0F9D1F0E948E00BE
:100DB0002196E3CFDF91CF911F910F9108950F936B
:100DC0001F93CF93DF93C7E0D1E003E010E0081B4F
:100DD0001109899199912091C101213021F4B80123
:100DE0000E94E912CB0148EC50E060E070E00E9404
:100DF000F60266EE70E080E090E00E94580683E024
:100E00000E94660281E0C931D80719F7DF91CF91BE
:100E10001F910F910895CF93DF931F928AE08F93D4
:100E20001F9284E08F9386E391E09F938F938AE0F3
:100E300093E09F938F930E942F140E94F7008DB729
:100E40009EB708960FB6F8949EBF0FBE8DBFD0E038
:100E5000C0E040E050E0BA01CE010E948E00219631
:100E6000CC3291E0D907A9F70E94790560ED77E0CF
:100E700080E090E00E94580640E05FEF60E070E0A4
:100E80008CE090E00E948E0040E05FEF60E070E058
:100E90008BE090E00E948E000E94790540E050E0D7
:100EA000BA0180E991E00E94F60260ED77E080E00F
:100EB00090E00E94580683E00E94660240E050E005
:100EC000BA018CE090E00E948E0040E050E0BA0150
:100ED0008BE090E00E948E0040E05FEF6FEF70E0EB
:100EE0008AE090E00E948E0040E05FEF6FEF70E0DC
:100EF00089E090E00E948E000E94790540E050E079
:100F0000BA0188E592E00E94F60260ED77E080E0A9
:100F100090E00E94580683E00E94660240E050E0A4
:100F2000BA0189E090E00E948E0040E050E0BA01F2
:100F30008AE090E00E948E0040E050E06FEF70E0A9
:100F400088E090E00E948E0040E050E06FEF70E09B
:100F500087E090E00E948E000E94790540E050E01A
:100F6000BA0180EB94E00E94F60260ED77E080E049
:100F700090E00E94580683E00E9466021F928AE079
:100F80008F931F9285E08F9386E391E09F938F93D9
:100F90008AE093E09F938F930E942F148DB79EB7A2
:100FA00008960FB6F8949EBF0FBE8DBFDF91CF910C
:100FB0000C94F7001F920F920FB60F9211242F93EB
:100FC0003F934F935F936F937F938F939F93AF93D1
:100FD000BF93EF93FF9380914F0390915003A091A3
:100FE0005103B0915203892B8A2B8B2BD1F1909115
:100FF0004A03E0914B03F0914C0380818927808361
:1010000080914F0390915003A0915103B0915203EE
:10101000181619061A061B069CF480914F0390912E
:101020005003A0915103B09152030197A109B10956
:1010300080934F0390935003A0935103B0935203B6
:10104000FF91EF91BF91AF919F918F917F916F91A0
:101050005F914F913F912F910F900FBE0F901F9076
:101060001895809100010E946602EACF1F920F92AC
:101070000FB60F9211242F933F934F935F936F936B
:101080007F938F939F93AF93BF93EF93FF938BE5E2
:1010900093E00E948701FF91EF91BF91AF919F91E3
:1010A0008F917F916F915F914F913F912F910F9011
:1010B0000FBE0F901F9018951F920F920FB60F92B0
:1010C00011242F938F939F93EF93FF93E0916B03E2
:1010D000F0916C038081E0917103F091720382FDC5
:1010E0001BC09081809174038F5F8F732091750373
:1010F000821741F0E0917403F0E0E55AFC4F958FC0
:1011000080937403FF91EF919F918F912F910F9096
:101110000FBE0F901F9018958081F4CF1F920F92F1
:101120000FB60F9211242F933F938F939F93AF93FA
:10113000BF938091BB019091BC01A091BD01B09182
:10114000BE013091940123E0230F2D3758F501960D
:10115000A11DB11D209394018093BB019093BC010C
:10116000A093BD01B093BE0180919501909196012D
:10117000A0919701B09198010196A11DB11D809396
:10118000950190939601A0939701B0939801BF9118
:10119000AF919F918F913F912F910F900FBE0F9024
:1011A0001F90189526E8230F0296A11DB11DD2CFDE
:1011B000CF93DF9310925E0310925D0388EE93E06D
:1011C000A0E0B0E080935F0390936003A09361037D
:1011D000B093620388E291E090935C0380935B0399
:1011E00085EC90E0909368038093670384EC90E033
:1011F00090936A038093690380EC90E090936C0372
:1012000080936B0381EC90E090936E0380936D0369
:1012100082EC90E09093700380936F0386EC90E0F3
:10122000909372038093710310927403109275036C
:1012300010927603109277031092F9031092000433
:1012400010920704109208041092090410920A04E4
:1012500081E080930604809303041092040492E0DA
:10126000909305048093F803C4E8D3E0D093FD0382
:10127000C093FC0384E893E00E940A139093020455
:1012800080930104009799F1FC019E011192215075
:101290003040E1F78CE291E09093FB038093FA03F6
:1012A00082E090E09093FF038093FE038091F90326
:1012B000882339F061E082E00E94BA0282E00E9455
:1012C0003F02E1EBF0E0E491F0E0EE0FFF1FEB55A1
:1012D000FF4F8591949190930C0480930B04E3E964
:1012E000F0E0E491E0930D04DF91CF910895109226
:1012F000FD031092FC031092FB031092FA03D0CF6F
:10130000CF93DF9300D000D0CDB7DEB7789484B50B
:10131000826084BD84B5816084BD85B5826085BDF1
:1013200085B5816085BD80916E00816080936E007F
:101330001092810080918100826080938100809171
:101340008100816080938100809180008160809322
:1013500080008091B10084608093B1008091B000E2
:1013600081608093B00080917A00846080937A00DD
:1013700080917A00826080937A0080917A00816007
:1013800080937A0080917A00806880937A0010922E
:10139000C100E0916B03F0916C0382E08083E091E7
:1013A0006703F09168031082E0916903F0916A038A
:1013B00080E1808310927303E0916F03F0917003DA
:1013C00086E08083E0916D03F0916E0380818061FF
:1013D0008083E0916D03F0916E038081886080834B
:1013E000E0916D03F0916E03808180688083E091CD
:1013F0006D03F0916E0380818F7D8083E3EDF1E0DA
:101400008FEF92E02FE721938E179F07E1F78091EE
:10141000FE039091FF0397FD07C061E00E94BA02AE
:101420008091FE030E943F0211E01093F90362E0F5
:1014300080E10E94BA0262E08EE00E94BA0280E17E
:101440000E9491029A838983892B09F0B2C010937C
:10145000090353E2E52E52E0F52E10E000E0B8015A
:10146000012E000C880B990B0E94B3112DEC3CEC63
:101470004CEC5FE30E9468129B01AC0160E070E0FD
:101480008EEF92E40E9409110E948211D7016D93A0
:101490007D010F5F1F4F0A30110509F78FE7809319
:1014A0002D024EE2E42E42E0F42E10E000E0B801FE
:1014B000012E000C880B990B0E94B3112DEC3CEC13
:1014C0004CEC5FE30E9468129B01AC0160E070E0AD
:1014D0008FE093E40E9409110E948211F701619349
:1014E0007F010F5F1F4F0A30110509F700E510E07B
:1014F00038E1C32ED12CE12CF12CB601552744271D
:101500004C295D296E297F29C8010E948E00F4E0D4
:10151000CF0ED11CE11CF11C0F5F1F4F20E4C2163F
:10152000D104E104F10449F704E610E098E1C92E82
:10153000D12CE12CF12CB601552744274C295D29EB
:101540006E297F29C8010E948E0084E0C80ED11C3C
:10155000E11CF11C0150110990E4C916D104E10409
:10156000F10449F70E94790568EE73E080E090E0AD
:101570000E94580640E050E0BA0184EF91E00E94DA
:10158000F60264EF71E080E090E00E94580683E08C
:101590000E94660264EF71E080E090E00E945806CD
:1015A00080E10E949102892B09F078C081E080934C
:1015B00008038EE00E949102892B21F568EE73E00A
:1015C00080E090E00E94580640E050E0BA0188EECA
:1015D00093E00E94F60264EF71E080E090E00E94E8
:1015E000580683E00E94660264EF71E080E090E0BC
:1015F0000E9458068EE00E949102019719F481E042
:101600008093C1010E940B07BCE62B2EB1E03B2E5C
:101610000CE211E08BE593E00E946701892B09F44D
:1016200079C0E0909901F0909A01C70185569E4FCC
:101630006C019EE1E916F1040CF04EC08BE593E0DD
:101640000E9445018A30F1F5D6011C9210929A0150
:1016500010929901E114F10409F45CC0F7FC46C052
:1016600020919B01253209F4ECC40CF0C1C4233253
:1016700009F4C8C41F928AE08F93822F022E000CB7
:10168000990B9F932F93A5E7B1E0BF93AF938AE0A7
:1016900093E09F938F930E942F14CBC440E050E0BF
:1016A000BA0189819A810E948E00A981BA8111961E
:1016B000BA83A983AC32B14089F70E9479051092B0
:1016C000080377CFBFEFEB1AFB0AF0929A01E09282
:1016D0009901F60180839ECFD6011C9210929A0147
:1016E00010929901AEEFEA2EFF24FA94FF92EF9246
:1016F000ECE3F1E0FF93EF938AE093E09F938F9305
:101700000E942F140E94F7000F900F900F900F90DF
:101710000F900F90F12CE12C40E050E0BA01C7018E
:101720000E948E00FFEFEF1AFF0A2CE2E21621E082
:10173000F20691F780910903882309F445C080914E
:101740000803882309F440C0E0E5EE2EF12CF8E10F
:101750008F2E912CA12CB12CB40155274427482958
:1017600059296A297B29C7010E948E0084E0880ECE
:10177000911CA11CB11C9FEFE91AF90AA0E48A167A
:101780009104A104B10441F754E6E52EF12C68E17F
:10179000862E912CA12CB12CB40155274427482921
:1017A00059296A297B29C7010E948E00B4E08B0E5B
:1017B000911CA11CB11CE1E0EE1AF108F0E48F16B7
:1017C0009104A104B10441F7809107038130F9F439
:1017D000C0900303D0900403E0900503F09006034B
:1017E00080E10E949102892BF1F4109207032DEC05
:1017F0003CEC4CE45EE3C701B6010E940A11609321
:101800000303709304038093050390930603809170
:101810000703811108C080E10E949102019719F429
:1018200081E0809307038091FF0290910003A091D3
:101830000103B091020389839A83AB83BC83BC010B
:10184000CD010E948211CB01B8010E94D512FC018A
:10185000ED52FE4FF0809EE79F1520F16FE770E09C
:101860006F197109072E000C880B990B0E94B31198
:1018700026EA3BE944E45BE30E9468129B01AC0169
:101880006091030370910403809105039091060316
:101890000E9409116093030370930403809305036E
:1018A00090930603F7FE24C0AF2DAF57BB0BBD01CD
:1018B000072E000C880B990B0E94B31126EA3BE916
:1018C00044E45BE30E9468129B01AC016091030356
:1018D0007091040380910503909106030E940A1100
:1018E00060930303709304038093050390930603AE
:1018F000C0900303D0900403E0900503F09006032A
:101900002FE832EC45E75CE3C701B6010E9468129C
:101910009B01AC01C701B6010E9409112B013C01DA
:1019200040920303509204036092050370920603F1
:101930008091D2018130F9F4C090CE01D090CF01D6
:10194000E090D001F090D1018EE00E949102892BAD
:10195000F1F41092D2012DEC3CEC4CE45EE3C701B3
:10196000B6010E940A116093CE017093CF0180935B
:10197000D0019093D1018091D201811108C08EE0F5
:101980000E949102019719F481E08093D201C090E6
:10199000CA01D090CB01E090CC01F090CD01C701FD
:1019A000B6010E948211CB01B8010E94D512FC0140
:1019B000ED52FE4FB080BEE7BB1520F16FE770E03F
:1019C0006B197109072E000C880B990B0E94B3113B
:1019D00026EA3BE944E45BE30E9468129B01AC0108
:1019E0006091CE017091CF018091D0019091D10191
:1019F0000E9409116093CE017093CF018093D001B2
:101A00009093D101B7FE24C0EB2DEF57FF0BBF0120
:101A1000072E000C880B990B0E94B31126EA3BE9B4
:101A200044E45BE30E9468129B01AC016091CE012B
:101A30007091CF018091D0019091D1010E940A1143
:101A40006093CE017093CF018093D0019093D10128
:101A50008090CE019090CF01A090D001B090D101A4
:101A60002FE832EC45E75CE3C501B4010E9468123F
:101A70009B01AC01C501B4010E9409114B015C013D
:101A80008092CE019092CF01A092D001B092D1016C
:101A9000A301920169817A818B819C810E940A1144
:101AA0002B013C014092FF0250920003609201031F
:101AB00070920203A5019401C701B6010E940A11A8
:101AC0006B017C01C092CA01D092CB01E092CC01A3
:101AD000F092CD01AC019B01C301B2010E946312DF
:101AE00018160CF0B7C28091C901823061F488EBFE
:101AF00091E09093C8018093C7018AE090E09093B1
:101B0000C6018093C50181E08093C901A7019601B8
:101B1000C301B2010E94761187FF0FC080E793E0F6
:101B20009093C8018093C7018AE090E09093C6012A
:101B30008093C50182E08093C901B090C401B09E3A
:101B4000B001B19E700D1124072E000C880B990B6B
:101B50000E94B3119B01AC01C301B2010E94631248
:101B600018167CF4B394B092C4018AE090E090938C
:101B7000C6018093C50188EB91E09093C8018093E2
:101B8000C701B090C301B09EB001B19E700D112489
:101B9000072E000C880B990B0E94B3119B01AC011E
:101BA000C701B6010E94631218167CF4B394B09278
:101BB000C3018AE090E09093C6018093C50180E75D
:101BC00093E09093C8018093C7018091C40186304F
:101BD00008F454C01F928AE08F938DE791E09F93A1
:101BE0008F938AE093E09F938F930E942F140E941B
:101BF000F7000F900F900F900F900F900F90812C87
:101C0000912C5401F12CE12CB501A401C7010E94D3
:101C10008E00BFEFEB1AFB0AE3E0AE0EB11CFEE153
:101C2000EF16F10489F70E94790581E00E94DF0632
:101C30001092C4011092C3011092FF02109200038F
:101C400010920103109202031092CA011092CB016C
:101C50001092CC011092CD01109203031092040354
:101C600010920503109206031092CE011092CF013C
:101C70001092D0011092D1010E940B078091C301F4
:101C8000863008F455C01F928AE08F9382E891E075
:101C90009F938F938AE093E09F938F930E942F14DA
:101CA0000E94F7000F900F900F900F900F900F90E1
:101CB000812C912C5401F12CE12CB501A401C70118
:101CC0000E948E00BFEFEB1AFB0AE3E09E0EA11C00
:101CD000B11CFEE1EF16F10481F70E94790582E064
:101CE0000E94DF061092C4011092C3011092FF02FD
:101CF0001092000310920103109202031092CA0185
:101D00001092CB011092CC011092CD0110920303DE
:101D10001092040310920503109206031092CE0154
:101D20001092CF011092D0011092D1010E940B07A6
:101D30008FB7F8944091BB015091BC016091BD01F7
:101D40007091BE018FBF2091C20144275270662757
:101D50007727822F90E0982F8827990F092E000C63
:101D6000AA0BBB0B481759076A077B0729F42111F7
:101D70007FC181E08093C20120E030E048EC52E472
:101D80006091030370910403809105039091060311
:101D90000E9468124B015C0120E030E0A9010E9422
:101DA000631220E030E040E05FE387FD64C1C501DD
:101DB000B4010E940A110E947B116B017C011C146A
:101DC0001D041E041F040CF076C120E030E048EC36
:101DD00052E46091CE017091CF018091D001909139
:101DE000D1010E9468124B015C0120E030E0A901A2
:101DF0000E94631220E030E040E05FE387FD64C1B1
:101E0000C501B4010E940A110E947B111616170623
:101E1000180619060CF076C16C157D058E059F0518
:101E20000CF079C181E08093C2018091C2018111DF
:101E30007BC10E94B5060E948B060E9479058091A5
:101E4000C1018130C1F520E030E04CED53E46091F8
:101E500003037091040380910503909106030E948F
:101E600068129B01AC010E940A110E947B11E09054
:101E7000C701F090C801E60EF71E20E030E04CEDFF
:101E800053E46091CE017091CF018091D001909187
:101E9000D1010E94681220E030E040E450E40E944A
:101EA00068120E947B11C701860F971F40E050E027
:101EB000BA010E94F60265E070E080E090E00E94C6
:101EC00058068091C5019091C601181619060CF0AC
:101ED00030C101979093C6018093C5018091BF01E5
:101EE0009091C00101969093C0018093BF01853607
:101EF00091050CF470C01F928AE0C82ECF926091B9
:101F0000FF027091000380910103909102030E94EF
:101F10007B11CB01B8010E94E91223E630E0DC011D
:101F20000E94FD122BE231E040E050E00E94AE1032
:101F30003F932F938091C4011F928F931F92DD24B2
:101F4000D394DF921F92DF9297E8E92E91E0F92E69
:101F5000FF92EF928AE093E09F938F930E942F1459
:101F60000E94F7001F92CF926091CA017091CB013D
:101F70008091CC019091CD010E947B11CB01B801E1
:101F80000E94E91223E630E0DC010E94FD122BE200
:101F900031E040E050E00E94AE103F932F938091DB
:101FA000C3011F928F931F92DF921F9282E08F9343
:101FB000FF92EF92EAE0F3E0FF93EF930E942F1479
:101FC0000E94F7001092C0011092BF010FB6F89462
:101FD000DEBF0FBECDBF80E090E0892B09F41ACBA5
:101FE0000E947301882309F413CB0E94000010CBD8
:101FF0002F3369F0203409F03DCB1F928F93E4E634
:10200000F1E078CB1F928F93E0E6F1E073CB1F9263
:102010008F93EFE1F1E0FF93EF938AE691E09F93D6
:102020008F933F922F92EAE0F3E0FF93EF930E94A9
:102030002F140E94F7000FB6F894DEBF0FBECDBF7D
:1020400069CB1F928F93A9E1B1E0BF93AF9383E770
:1020500091E0E5CFA7019601C301B2010E9476117C
:1020600087FF6BCD8091C901813009F063CD56CDDA
:102070001092C20181CEC501B4010E9409110E94D3
:102080007B116B017C011C141D041E041F040CF445
:102090009CCE20E030E040E05FE3C501B4010E9447
:1020A00009110E947B11CC24DD247601C61AD70ABF
:1020B000E80AF90A8ACE20E030E040E05FE3C5019B
:1020C000B4010E940A11EDCFC501B4010E940911AB
:1020D0000E947B1116161706180619060CF49CCEE2
:1020E00020E030E040E05FE3C501B4010E94091147
:1020F0000E947B1190958095709561957F4F8F4FD1
:102100009F4F8ACE20E030E040E05FE3C501B4019C
:102110000E940A11EDCFC616D706E806F9060CF0A4
:1021200084CE1092C20181CE0E948B060E94B50619
:1021300084CE1092C8011092C701D0CE80910104C4
:10214000909102040E94A6138091FE039091FF03D8
:1021500097FD03C060E00C94BA020895052E97FB2A
:102160001EF400940E94C51057FD07D00E94D8109D
:1021700007FC03D04EF40C94C51050954095309553
:1021800021953F4F4F4F5F4F0895909580957095E3
:1021900061957F4F8F4F9F4F08950E94FA10A59F22
:1021A000900DB49F900DA49F800D911D1124089552
:1021B000A1E21A2EAA1BBB1BFD010DC0AA1FBB1F4B
:1021C000EE1FFF1FA217B307E407F50720F0A21BBD
:1021D000B30BE40BF50B661F771F881F991F1A942A
:1021E00069F760957095809590959B01AC01BD0154
:1021F000CF010895A29FB001B39FC001A39F700DAE
:10220000811D1124911DB29F700D811D1124911DFE
:1022100008955058BB27AA270E9421110C94291217
:102220000E941B1238F00E94221220F039F49F3FC6
:1022300019F426F40C9418120EF4E095E7FB0C94B4
:102240001212E92F0E943A1258F3BA176207730765
:102250008407950720F079F4A6F50C945C120EF42F
:10226000E0950B2EBA2FA02D0B01B90190010C01A6
:10227000CA01A0011124FF27591B99F0593F50F4BE
:10228000503E68F11A16F040A22F232F342F442716
:10229000585FF3CF469537952795A795F04053950E
:1022A000C9F77EF41F16BA0B620B730B840BBAF0DE
:1022B0009150A1F0FF0FBB1F661F771F881FC2F749
:1022C0000EC0BA0F621F731F841F48F4879577955D
:1022D0006795B795F7959E3F08F0B0CF9395880F17
:1022E00008F09927EE0F9795879508950E94EE11B3
:1022F00008F481E008950E9482116894B1110C9451
:102300005D1208950E94421288F09F5798F0B92FED
:102310009927B751B0F0E1F0660F771F881F991F1A
:102320001AF0BA95C9F714C0B13091F00E945C124E
:10233000B1E008950C945C12672F782F8827B85F5E
:1023400039F0B93FCCF3869577956795B395D9F772
:102350003EF490958095709561957F4F8F4F9F4F7C
:102360000895E89409C097FB3EF490958095709588
:1023700061957F4F8F4F9F4F9923A9F0F92F96E9D1
:10238000BB279395F695879577956795B795F11146
:10239000F8CFFAF4BB0F11F460FF1BC06F5F7F4FE3
:1023A0008F4F9F4F16C0882311F096E911C07723F5
:1023B00021F09EE8872F762F05C0662371F096E8FE
:1023C000862F70E060E02AF09A95660F771F881FCD
:1023D000DAF7880F9695879597F90895990F000871
:1023E000550FAA0BE0E8FEEF16161706E807F907E7
:1023F000C0F012161306E407F50798F0621B730B82
:10240000840B950B39F40A2661F0232B242B252B02
:1024100021F408950A2609F4A140A6958FEF811DA5
:10242000811D089597F99F6780E870E060E0089546
:102430009FEF80EC089500240A94161617061806DC
:102440000906089500240A941216130614060506B8
:102450000895092E0394000C11F4882352F0BB0F49
:1024600040F4BF2B11F460FF04C06F5F7F4F8F4FAC
:102470009F4F089557FD9058440F551F59F05F3FE7
:1024800071F04795880F97FB991F61F09F3F79F096
:1024900087950895121613061406551FF2CF469518
:1024A000F1DF08C0161617061806991FF1CF86959A
:1024B0007105610508940895E894BB27662777277E
:1024C000CB0197F908950E94EE1108F48FEF08955B
:1024D0000E947B120C9429120E941B1238F00E9459
:1024E000221220F0952311F00C9412120C94181261
:1024F00011240C945D120E943A1270F3959FC1F35F
:10250000950F50E0551F629FF001729FBB27F00DA1
:10251000B11D639FAA27F00DB11DAA1F649F6627F6
:10252000B00DA11D661F829F2227B00DA11D621F45
:10253000739FB00DA11D621F839FA00D611D221FFF
:10254000749F3327A00D611D231F849F600D211DE3
:10255000822F762F6A2F11249F5750409AF0F1F066
:1025600088234AF0EE0FFF1FBB1F661F771F881FCF
:1025700091505040A9F79E3F510580F00C941212E3
:102580000C945D125F3FE4F3983ED4F38695779503
:102590006795B795F795E7959F5FC1F7FE2B880F75
:1025A000911D9695879597F90895AA1BBB1B51E13C
:1025B00007C0AA1FBB1FA617B70710F0A61BB70BB3
:1025C000881F991F5A95A9F780959095BC01CD0158
:1025D000089597FB072E16F4009407D077FD09D0D5
:1025E0000E94D51207FC05D03EF4909581959F4F2F
:1025F0000895709561957F4F08950E94FA10B7FF76
:102600000895821B930B0895EE0FFF1F0590F49120
:10261000E02D09940F931F93CF93DF9382309105A0
:1026200010F482E090E0E0911004F091110430E0A9
:1026300020E0B0E0A0E0309799F42115310509F4CD
:102640004AC0281B390B24303105D8F58A819B817B
:102650006115710589F1FB0193838283FE0111C02D
:10266000408151810281138148175907E0F04817D2
:10267000590799F4109761F012960C9312971396DC
:102680001C933296CF01DF91CF911F910F91089546
:102690000093100410931104F4CF2115310551F06B
:1026A0004217530738F0A901DB019A01BD01DF0190
:1026B000F801C1CFEF01F9CF90931104809310047A
:1026C000CDCFFE01E20FF31F819391932250310988
:1026D00039832883D7CF20910E0430910F04232B08
:1026E00041F4209103013091040130930F042093B1
:1026F0000E0420910101309102012115310541F4B0
:102700002DB73EB74091050150910601241B350BB2
:10271000E0910E04F0910F04E217F307A0F42E1BD2
:102720003F0B2817390778F0AC014E5F5F4F241735
:10273000350748F04E0F5F1F50930F0440930E046F
:10274000819391939FCFF0E0E0E09CCFCF93DF9314
:102750000097E9F0FC01329713821282A0911004D5
:10276000B0911104ED0130E020E01097A1F4208138
:102770003181820F931F20910E0430910F0428178E
:10278000390709F061C0F0930F04E0930E04DF9164
:10279000CF910895EA01CE17DF07E8F54A815B8102
:1027A0009E0141155105B1F7E901FB83EA83499187
:1027B0005991C40FD51FEC17FD0761F480819181F9
:1027C0000296840F951FE901998388838281938102
:1027D0009B838A83F0E0E0E012968D919C911397A1
:1027E0000097B9F52D913C911197CD010296820F7A
:1027F000931F20910E0430910F042817390739F6E2
:10280000309751F51092110410921004B0930F04F8
:10281000A0930E04BCCFD383C28340815181840F27
:10282000951FC817D90761F44E5F5F4F8881998162
:10283000480F591F518340838A819B8193838283F0
:102840002115310509F0B0CFF0931104E093100485
:102850009ECFFD01DC01C0CF13821282D7CFAEE044
:10286000B0E0E5E3F4E10C94DE160D891E8986E004
:102870008C831A8309838FEF9FE79E838D83AE013C
:10288000475E5F4F6F89788DCE0101960E9452148A
:102890002F813885020F131FF80110822E96E4E075
:1028A0000C94FA16ABE0B0E0E8E5F4E10C94D01635
:1028B0007C013B018A01FC0117821682838181FF22
:1028C000C8C1CE0101965C01F7019381F30193FD2C
:1028D000859193FF81913F01882309F453C185328B
:1028E00039F493FD859193FF81913F01853229F45D
:1028F000B70190E00E944216E7CF912C212C312C99
:10290000FFE1F31538F08B3211F190F4803209F1C8
:10291000833229F137FC3CC020ED280F2A3050F5D6
:1029200036FE20C08AE0989E200D1124922E06C00B
:102930008D3291F0803371F7689430F8F30193FD94
:10294000859193FF81913F018111DACF21C0689475
:1029500031F8689432F8F2CF689433F8EFCF689486
:1029600034F8ECCFEAE02E9E200D1124222E68943C
:1029700035F8E4CF8E3229F436FC04C1689436F879
:10298000DDCF8C3619F4689437F8D8CF8836B1F299
:10299000982F9F7D95549330E0F08336A1F18337D3
:1029A000C1F1833509F063C02801F2E04F0E511CDC
:1029B000F801C080D180692D70E036FC02C06FEF55
:1029C0007FEFC6010E942C164C01689437F88201F3
:1029D0000AC00C5F1F4FFFE3F98388248394912C76
:1029E0006501E89437F833FE2DC0522C8114910410
:1029F00071F5552009F468CFB70180E290E00E949C
:102A000042165A94F6CFF801808189830E5F1F4FDA
:102A1000E4CF2801F2E04F0E511CF801C080D180B4
:102A2000692D70E036FC02C06FEF7FEFC6010E9497
:102A300037164C018201D5CFB70180E290E00E94A9
:102A400042162A942814190409F0B0F7CECFF601E3
:102A500037FC859137FE81916F01B70190E00E94AC
:102A6000421651105A94F1E08F1A9108BFCF843664
:102A700019F0893609F077C0F80137FE6BC0608124
:102A80007181828193810C5F1F4FF32DFF763F2E62
:102A900097FF09C090958095709561957F4F8F4FF6
:102AA0009F4F689437F82AE030E0A5010E94721623
:102AB000C82ECA188C2C432C36FE0CC0E89440F863
:102AC000C91440F434FE05C032FC03C0F32DFE7E71
:102AD0004F2E892C44FE95C0FE01EC0DF11D808126
:102AE000803309F087C0242D297E422E842D8870E2
:102AF000582E43FC95C040FE8FC09C2C821418F4C5
:102B00002C0C922C981844FE91C0B70180E390E001
:102B10000E94421642FE09C088E790E041FE02C0D2
:102B200088E590E0B7010E944216C91408F48AC0F3
:102B3000CA94D12C9FEFC91AD90ACA0CDB1CF60122
:102B400082916F01B70190E00E944216AC14BD045F
:102B5000B1F74FCF60817181072E000C880B990B64
:102B60000E5F1F4F92CFD32CE894D4F82AE030E0C8
:102B7000853739F1232D297FD22E8F3601F148F484
:102B80008835A9F0F701868197812B96E2E10C94B4
:102B9000EC16803749F08837A9F7D4FE02C0689454
:102BA000D2F820E130E00DC06894D4F8F6CF34FEBE
:102BB00003C0822F8660D82E20E132E002C028E0D8
:102BC00030E0F801D7FE0FC060817181828193816E
:102BD0000C5F1F4FA5010E947216C82ECA183D2C0B
:102BE000E89437F867CF6081718190E080E00E5FF4
:102BF0001F4FF0CF42FC02C0839478CF839483941C
:102C000075CF842D867809F471CFF6CFB70180E2B5
:102C100090E00E94421683948214C0F3512C73CF2B
:102C2000522C5818821408F46ECFF8CF842D867871
:102C300009F47BCF8BE241FE80E247FC8DE2B701D5
:102C400090E071CFB70180E390E00E9442169A9421
:102C50006CCF8FEF9FEF99CFFC01059061507040D2
:102C60000110D8F7809590958E0F9F1F0895FC0155
:102C70006150704001900110D8F7809590958E0FAB
:102C80009F1F08950F931F93CF93DF93182F092F42
:102C9000EB018B8181FD09C01FEF0FEF812F902F7A
:102CA000DF91CF911F910F91089582FF14C02E8163
:102CB0003F818C819D81281739073CF4E881F98197
:102CC000CF0101969983888310838E819F8101961D
:102CD0009F838E83E3CFE885F985812F0995892B22
:102CE000A1F3DACFFA01AA27283051F1203181F17E
:102CF000E8946F936E7F6E5F7F4F8F4F9F4FAF4F04
:102D0000B1E03ED0B4E03CD0670F781F891F9A1F16
:102D1000A11D680F791F8A1F911DA11D6A0F711DCA
:102D2000811D911DA11D20D009F468943F912AE0D6
:102D3000269F11243019305D3193DEF6CF010895BE
:102D4000462F4770405D4193B3E00FD0C9F7F6CFEF
:102D5000462F4F70405D4A3318F0495D31FD4052B7
:102D6000419302D0A9F7EACFB4E0A695979587954D
:102D700077956795BA95C9F700976105710508952C
:102D80009B01AC010A2E06945795479537952795D8
:102D9000BA95C9F7620F731F841F951FA01D089570
:102DA0002F923F924F925F926F927F928F929F925B
:102DB000AF92BF92CF92DF92EF92FF920F931F9349
:102DC000CF93DF93CDB7DEB7CA1BDB0B0FB6F894FA
:102DD000DEBF0FBECDBF09942A88398848885F843A
:102DE0006E847D848C849B84AA84B984C884DF80AB
:102DF000EE80FD800C811B81AA81B981CE0FD11D8F
:102E00000FB6F894DEBF0FBECDBFED01089510E000
:102E1000C3E6D0E004C0FE010E9404132196C4362C
:102E2000D107C9F7F894FFCFFF0000120480004DCE
:102E30000A4D0A00004D0A00002D084D0A0000400E
:102E40000C312E302E300041325030000000000096
:102E5000A90109013601F601670145015901522511
:102E60006425630021314572726F7220726561645E
:102E7000696E672073657269616C20636F6D6D6147
:102E80006E643A5B25645D0023256300404F4B254B
:102E900063003F0025732573256300250025634EDD
:102EA0004F4B25630077312563007732256300702F
:0C2EB0002564256425642C25642563003E
:107800000C94343C0C94513C0C94513C0C94513CE1
:107810000C94513C0C94513C0C94513C0C94513CB4
:107820000C94513C0C94513C0C94513C0C94513CA4
:107830000C94513C0C94513C0C94513C0C94513C94
:107840000C94513C0C94513C0C94513C0C94513C84
:107850000C94513C0C94513C0C94513C0C94513C74
:107860000C94513C0C94513C11241FBECFEFD8E036
:10787000DEBFCDBF11E0A0E0B1E0ECE9FFE702C060
:1078800005900D92A230B107D9F712E0A2E0B1E065
:1078900001C01D92AD30B107E1F70E942D3D0C945F
:1078A000CC3F0C94003C982F959595959595959582
:1078B000905D8F708A307CF0282F295A8091C0000B
:1078C00085FFFCCF9093C6008091C00085FFFCCF60
:1078D0002093C6000895282F205DF0CF982F809127
:1078E000C00085FFFCCF9093C6000895EF92FF92F1
:1078F0000F931F93EE24FF2487018091C00087FD22
:1079000017C00894E11CF11C011D111D81E4E8164B
:1079100082E4F8068FE0080780E0180770F3E09132
:107920000401F091050109958091C00087FFE9CF1E
:107930008091C6001F910F91FF90EF9008950E94D3
:10794000763C982F8091C00085FFFCCF9093C600B5
:1079500091362CF490330CF09053892F089597555D
:10796000892F08951F930E949F3C182F0E949F3CCF
:107970001295107F810F1F9108951F93182F882350
:1079800021F00E94763C1150E1F71F9108951F935A
:10799000182F0E94763C803249F0809103018F5F5E
:1079A000809303018530C1F01F9108958091C0003C
:1079B00085FFFCCF84E18093C6008091C00085FFE5
:1079C000FCCF1093C6008091C00085FFFCCF80E102
:1079D0008093C6001F910895E0910401F091050184
:1079E00009951F9108950E94763C803241F0809164
:1079F00003018F5F80930301853081F008958091AA
:107A0000C00085FFFCCF84E18093C6008091C00058
:107A100085FFFCCF80E18093C6000895E0910401CA
:107A2000F09105010995089540E951E08823A1F0FE
:107A30002D9A28EE33E0FA013197F1F721503040CA
:107A4000D1F72D9828EE33E0FA013197F1F7215064
:107A50003040D1F7815061F708953F924F925F9285
:107A60006F927F928F929F92AF92BF92CF92DF924E
:107A7000EF92FF920F931F93CF93DF93000080E16B
:107A80008093C4001092C50088E18093C10086E015
:107A90008093C2005098589A259A81E00E94143D24
:107AA00024E1F22E9EE1E92E85E9D82E0FE0C02ECA
:107AB00010E1B12EAA24A394B1E49B2EA6E58A2E50
:107AC000F2E57F2EE0E26E2E79E4572E63E5462E36
:107AD00050E5352E0E94763C8033B1F18133B9F107
:107AE000803409F46FC0813409F476C0823409F41B
:107AF00085C0853409F488C0803531F1823521F1A3
:107B0000813511F1853509F485C0863509F48DC0BC
:107B1000843609F496C0843709F403C1853709F423
:107B200072C1863709F466C0809103018F5F80932C
:107B30000301853079F6E0910401F0910501099582
:107B40000E94763C803351F60E94F33CC3CF0E94E2
:107B5000763C803249F78091C00085FFFCCFF092DF
:107B6000C6008091C00085FFFCCF9092C600809136
:107B7000C00085FFFCCF8092C6008091C00085FFC9
:107B8000FCCF7092C6008091C00085FFFCCF609250
:107B9000C6008091C00085FFFCCF5092C600809146
:107BA000C00085FFFCCF4092C6008091C00085FFD9
:107BB000FCCF3092C6008091C00085FFFCCFB09210
:107BC000C60088CF0E94763C863808F4BDCF0E945C
:107BD000763C0E94F33C7ECF0E94763C803809F4CC
:107BE0009CC0813809F40BC1823809F43CC1883942
:107BF00009F48FC080E00E94C73C6CCF84E10E94F2
:107C0000BD3C0E94F33C66CF85E00E94BD3C0E94D3
:107C1000F33C60CF0E94763C809306010E94763C44
:107C2000809307010E94F33C55CF0E94763C80333D
:107C300009F41DC183E00E94BD3C80E00E94C73C66
:107C400049CF0E94763C809309020E94763C809343
:107C5000080280910C028E7F80930C020E94763C79
:107C6000853409F415C18091080290910902892B8D
:107C700089F000E010E00E94763CF801E85FFE4FDA
:107C800080830F5F1F4F80910802909109020817AF
:107C9000190788F30E94763C803209F045CF809125
:107CA0000C0280FF01C16091060170910701660F0F
:107CB000771F7093070160930601A0910802B091AD
:107CC00009021097C9F0E8E0F1E09B01AD014E0F09
:107CD0005F1FF999FECF32BD21BD819180BDFA9A17
:107CE000F99A2F5F3F4FE417F50799F76A0F7B1F4B
:107CF00070930701609306018091C00085FFFCCF5F
:107D0000F092C6008091C00085FFFCCFB092C60003
:107D1000E1CE83E00E94C73CDDCE82E00E94C73CFA
:107D2000D9CE0E94763C809309020E94763C8093D3
:107D300008028091060190910701880F991F909386
:107D40000701809306010E94763C853409F4A6C0A1
:107D500080910C028E7F80930C020E94763C8032D0
:107D600009F0B8CE8091C00085FFFCCFF092C6002C
:107D7000609108027091090261157105B9F140E046
:107D800050E080910C02A82FA170B82FB27011C0E2
:107D9000BB2309F45CC0E0910601F0910701319624
:107DA000F0930701E09306014F5F5F4F46175707B7
:107DB000E8F4AA2369F3F999FECF209106013091E6
:107DC000070132BD21BDF89A90B58091C00085FFB2
:107DD000FCCF9093C6002F5F3F4F30930701209355
:107DE00006014F5F5F4F4617570718F38091C00099
:107DF00085FDE5CE8091C00085FFF8CFE0CE81E023
:107E00000E94C73C67CE0E94763C803209F08CCE3F
:107E10008091C00085FFFCCFF092C6008091C00029
:107E200085FFFCCFE092C6008091C00085FFFCCFAB
:107E3000D092C6008091C00085FFFCCFC092C600E2
:107E40008091C00085FFFCCFB092C60043CEE09188
:107E50000601F091070194918091C00085FFFCCF4D
:107E60009093C6009CCF80E10E94C73C33CE0E9415
:107E7000763C0E94763C182F0E94763C112309F430
:107E800083C0113009F484C08FE00E94C73C22CE29
:107E900080910C02816080930C02E5CE80910C02EF
:107EA000816080930C0259CF809107018823880F4D
:107EB000880B8A2180930B02809106019091070123
:107EC000880F991F90930701809306018091080203
:107ED00080FF09C080910802909109020196909359
:107EE000090280930802F894F999FECF1127E091D6
:107EF0000601F0910701C8E0D1E08091080290915D
:107F00000902103091F40091570001700130D9F34B
:107F100003E000935700E89500915700017001308D
:107F2000D9F301E100935700E89509901990009169
:107F3000570001700130D9F301E000935700E89534
:107F40001395103498F011270091570001700130FB
:107F5000D9F305E000935700E895009157000170B0
:107F60000130D9F301E100935700E895329602976A
:107F700009F0C7CF103011F00296E5CF112480919F
:107F8000C00085FFB9CEBCCE8EE10E94C73CA2CD19
:0E7F900085E90E94C73C9ECDF894FFCF80008B
:00000001FF
